:0400000081EF00F09C
:10000800A240A240A240A2404000A2404000A2401C
:10001800A240A240A240A240A240A240A240A240C8
:10002800A240400040004000A240A240A240A2409E
:10003800A240A240A240A240A240A240A240A240A8
:10004800A240A240A240A24040004000A240A240DC
:10005800A240A240A2404000A240A240A240A2402A
:10006800A240A240A240A240A240A240A240A24078
:10007800A240A240A240A2404000A240A240A2400A
:10008800A240A240A240A240A240A240A240A24058
:10009800A240A240A240A240400087404000400049
:1000A800A240A240A240A240A240A240A240A24038
:1000B800A240A240A240A240A240A240A240A24028
:1000C800A240A240A240A240A240A240A240A24018
:1000D800A240A240A240A240A240A240A240A24008
:1000E8004000A240A240A240400040004000400022
:0E00F800A240A240A240A240FF0036EF81F0DD
:10DFFE0000F331ED20C33C00FFC33100FFFFFFFFF4
:10E00E00FFC31B00FFFFFFFFFFC32C00DB41CB470D
:10E01E0028FADB40FE61D8FE7BD0E6DFC9DB41CBC0
:10E02E0047C9F5DB41CB4F28FAF1D340C9C33F00B6
:10E03E00C34500C3CE00C34C0011098710214520F3
:10E04E00F93E00ED39323E00ED39363E80ED391F96
:10E05E003E7FED391EC3A21C1138030663214520F5
:10E06E001A77231305C26F00F9CD3905CD070B3290
:10E07E00EF20323E2121A221237CB5CA96007E4795
:10E08E002F77BE70CA87002B11A121CDCF06DAD70C
:10E09E000011CEFF22F42019229F20CD14052A9FB5
:10E0AE002011EFFF19113E217D936F7C9A67E521B8
:10E0BE00EF00CDA511E1CD481821E000CDA511311D
:10E0CE00AB20CD3905C35204212601CDA511C3DDE8
:10E0DE000020427974657320667265650D0A000032
:10E0EE005A38302042415349432056657220342E0F
:10E0FE0037620D0A436F707972696768742028431E
:10E10E00292031393738206279204D6963726F7357
:10E11E006F66740D0A00004D656D6F72792073691C
:10E12E007A65206E6F7420656E6F7567680D0A5480
:10E13E0068652073797374656D2069732073746FCD
:10E14E00707065642E0D0A0000BD168117D3164837
:10E15E00206510EA1393104719261A621595199B1C
:10E16E001AA11A021B171B3E14821B962017132F7F
:10E17E0011B11326133713A41B371C4713771381C2
:10E18E0013C54E44C64F52CE455854C4415441C98E
:10E19E004E505554C4494DD2454144CC4554C74FB9
:10E1AE00544FD2554EC946D24553544F5245C74F80
:10E1BE00535542D2455455524ED2454DD3544F50DD
:10E1CE00CF5554CF4ECE554C4CD7414954C44546ED
:10E1DE00D04F4B45C44F4B45D3435245454ECC498A
:10E1EE004E4553C34C53D749445448CD4F4E4954D2
:10E1FE004F52D34554D245534554D052494E54C331
:10E20E004F4E54CC495354C34C454152C34C4F41CD
:10E21E0044C353415645CE4557D4414228D44FC6E8
:10E22E004ED3504328D448454ECE4F54D354455028
:10E23E00ABADAAAFDEC14E44CF52BEBDBCD3474E2E
:10E24E00C94E54C14253D55352C65245C94E50D0F1
:10E25E004F53D35152D24E44CC4F47C55850C34F53
:10E26E0053D3494ED4414EC1544ED045454BC4456F
:10E27E00454BD04F494E54CC454ED3545224D641E3
:10E28E004CC15343C3485224C8455824C2494E2456
:10E29E00CC45465424D24947485424CD4944248081
:10E2AE00A908A607810CF609880BBD0EB70B0D0A3F
:10E2BE00B3099609850A6F08A209D109F809A708BA
:10E2CE00F613670AE808FC139B1045148D1BF8091A
:10E2DE00731B661B6B1B9F1C99209C20A90AD508DB
:10E2EE001B075009F809F8091305792F18796314DB
:10E2FE007CA1157C02167F501950160E46150E4E37
:10E30E0046534E52474F4446434F564F4D554C423F
:10E31E005344442F304944544D4F534C535354435C
:10E32E004E55464D4F4858424EC3CE00C32609D3D4
:10E33E0000C9D6006F7CDE006778DE00473E00C95C
:10E34E00000000354ACA99391C76982295B3980A6E
:10E35E00DD479853D199990A1A9F9865BCCD98D6E6
:10E36E00773E9852C74F80DB00C901FF1C00001496
:10E37E0000140000000000C34C06C30000C30000E0
:10E38E00C30000A221FEFF3F21204572726F720072
:10E39E0020696E20004F6B0D0A0000427265616BA2
:10E3AE0000210400397E23FE81C04E234623E569F9
:10E3BE00607AB3EBCACA03EBCDCF06010D00E1C8FC
:10E3CE0009C3B403CDED03C5E3C1CDCF067E02C8AC
:10E3DE000B2BC3D903E52A1F21060009093EE53E92
:10E3EE00D0956F3EFF9CDAFC036739E1D81E0CC353
:10E3FE001B042A0E2122A1201E02011E14011E0042
:10E40E00011E12011E22011E0A011E18CD390532EF
:10E41E008A20CDFA0A210E03573E3FCDE006197E23
:10E42E00CDE006CD5F08CDE006219803CDA5112ADB
:10E43E00A12011FEFFCDCF06CA4C007CA53CC440E6
:10E44E00183EC1AF328A20CDFA0A21A403CDA51100
:10E45E0021FFFF22A120CD4C06DA5F04CD5F083CE0
:10E46E003DCA5F04F5CD2B09D5CD630547D1F1D259
:10E47E003F08D5C5AF321121CD5F08B7F5CDF304F6
:10E48E00DA9804F1F5CACC09B7C5D2AF04EB2A1B52
:10E49E00211A020313CDCF06C2A0046069221B21EC
:10E4AE00D1F1CAD6042A1B21E3C109E5CDD303E17C
:10E4BE00221B21EB74D123237323722311A6201A5E
:10E4CE00772313B7C2CE04CD1F0523EB626B7E23D9
:10E4DE00B6CA5F04232323AFBE23C2E704EB732324
:10E4EE0072C3DB042AA320444D7E23B62BC82323FC
:10E4FE007E23666FCDCF0660697E23666F3FC83F71
:10E50E00D0C3F604C02AA320AF77237723221B2182
:10E51E002AA3202B2213212AF420220821AFCD6F0B
:10E52E00082A1B21221D21221F21C12A9F20F921E9
:10E53E00F82022F620AF6F672219213210212223F4
:10E54E0021E5C52A1321C93E3FCDE0063E20CDE090
:10E55E0006C39320AF32F3200E0511A6207EFE20B7
:10E56E00CAEB0547FE22CA0B06B7CA12063AF320BB
:10E57E00B77EC2EB05FE3F3E9ECAEB057EFE30DA4D
:10E58E009605FE3CDAEB05D5118F01C501E705C5F1
:10E59E00067F7EFE61DAAF05FE7BD2AF05E65F77C2
:10E5AE004EEB23B6F2B105047EE67FC8B9C2B105C3
:10E5BE00EBE5131AB7FAE3054F78FE88C2D205CD04
:10E5CE005F082B237EFE61DADB05E65FB9CAC10563
:10E5DE00E1C3AF0548F1EBC9EB79C1D12312130C9E
:10E5EE00D63ACAF905FE49C2FC0532F320D654C20A
:10E5FE006C05477EB7CA1206B8CAEB0523120C1378
:10E60E00C3020621A5201213121312C93A8920B78C
:10E61E003E00328920C22F0605CA4C06CDE0063ECA
:10E62E00052BCA43067ECDE006C35506052BCDE06D
:10E63E0006C25506CDE006CD070BC34C0621A6201B
:10E64E000601AF328920CD0A074FFE7FCA1B063A5C
:10E65E008920B7CA6E063E00CDE006AF328920791A
:10E66E00FE07CAB206FE03CC070B37C8FE0DCA0260
:10E67E000BFE15CA4606FE40CA4306FE5FCA3B069F
:10E68E00FE08CA3B06FE12C2AD06C5D5E53600CD64
:10E69E00B11C21A620CDA511E1D1C1C35506FE2086
:10E6AE00DA550678FE493E07D2C706797132112136
:10E6BE002304CDE006C35506CDE0063E08C3C106D1
:10E6CE007C92C07D93C97EE3BE23E3CA5F08C30775
:10E6DE0004F53A8A20B7C2DA11F1C5F5FE20DA0444
:10E6EE00073A8720473AF02004CA000705B8CC073E
:10E6FE000B3C32F020F1C1CD9C1CC9CD641BE67FD2
:10E70E00FE0FC03A8A202F328A20AFC9CD2B09C006
:10E71E00C1CDF304C5CD7107E14E23462378B1CAAE
:10E72E005204CD7A07CD8A08C5CD070B5E2356233A
:10E73E00E5EBCD48183E20E1CDE0067EB723CA2793
:10E74E0007F24707D67F4F1190011A13B7F25907F8
:10E75E000DC25907E67FCDE0061A13B7F26307C361
:10E76E004A07E52A8D20228B20E1C9E5D52A8B2088
:10E77E0011FFFFED5A228B20D1E1F0E52A8D2022E8
:10E78E008B20CD641BFE03CA9D07E1C37A072A8D39
:10E79E0020228B20C3D1003E64321021CD0D0AC140
:10E7AE00E5CDF609220C2121020039CDB403D1C2E8
:10E7BE00D60709D52B562B5E2323E52A0C21CDCF68
:10E7CE0006E1C2BA07D1F9EB0E08CDE403E52A0C37
:10E7DE0021E3E52AA120E3CDCF0CCDD506A6CDCCE5
:10E7EE000CE5CDFA16E1C5D5010081515A7EFEAB7E
:10E7FE003E01C21208CD5F08CDCC0CE5CDFA16CD88
:10E80E00AE16E1C5D5F533E52A1321E30681C533EE
:10E81E00CD8A082213217EFE3ACA3F08B7C20704EA
:10E82E00237E23B6CAB108235E2356EB22A120EB2A
:10E83E00CD5F08111F08D5C8D680DA0D0AFE25D285
:10E84E000704074F0600EB21AF02094E2346C5EB26
:10E85E00237EFE3AD0FE20CA5F08FE303F3C3DC903
:10E86E00EB2AA320CA8408EBCD2B09E5CDF3046077
:10E87E0069D1D2CC092B222121EBC9DFC8D7FE1BCF
:10E88E002811FE03280DFE13C0D7FE11C8FE032863
:10E89E000718F63EFF329220C0F6C022132121F651
:10E8AE00FFC12AA120F57DA43CCAC4082217212A43
:10E8BE001321221921AF328A20CDFA0AF121AA039F
:10E8CE00C23B04C352042A19217CB51E20CA1B0464
:10E8DE00EB2A172122A120EBC9CD2D14C0328620A0
:10E8EE00C9E52A8F2006004F09228F20E1C97EFE3E
:10E8FE0041D8FE5B3FC9CD5F08CDCC0CCDAE16FA2C
:10E90E0026093A2C21FE90DA56170180901100004C
:10E91E00E5CD2917E151C81E08C31B042B110000B9
:10E92E00CD5F08D0E5F5219819CDCF06DA07046240
:10E93E006B19291929F1D6305F160019EBE1C32F97
:10E94E0009CA2305CD08092BCD5F08E52AF420CA94
:10E95E007309E1CDD5062CD5CD08092BCD5F08C2A4
:10E96E000704E3EB7D935F7C9A57DAFC03E52A1BE1
:10E97E002101280009CDCF06D2FC03EB229F20E116
:10E98E0022F420E1C32305CA1F05CD2305011F086C
:10E99E00C3B2090E03CDE403C1E5E52AA120E33E8F
:10E9AE008CF533C5CD2B09CDF809E52AA120CDCFA5
:10E9BE0006E123DCF604D4F30460692BD81E0EC3E3
:10E9CE001B04C016FFCDB003F9FE8C1E04C21B043F
:10E9DE00E122A120237CB5C2F0093A1121B7C25120
:10E9EE0004211F08E33EE1013A0E00060079484774
:10E9FE007EB7C8B8C823FE22CAFC09C3FF09CDC220
:10EA0E000ECDD506B4D53AF220F5CDDE0CF1E322CB
:10EA1E0013211FCDD10CCA600AE52A2921E5232333
:10EA2E005E23562AA320CDCF06D24F0A2A9F20CD91
:10EA3E00CF06D1D2570A210421CDCF06D2570A3E96
:10EA4E00D1CD0613EBCD3F11CD0613E1CD0917E164
:10EA5E00C9E5CD0617D1E1C9CD2D147E47FE8CCA6E
:10EA6E00760ACDD506882B4B0D78CA4708CD2C09D2
:10EA7E00FE2CC0C3770ACDDE0C7EFE88CA930ACD6B
:10EA8E00D506A92BCDCF0CCDAE16CAF809CD5F0891
:10EA9E00DAB309C346082BCD5F08CA070BC8FEA51B
:10EAAE00CA3A0BFEA8CA3A0BE5FE2CCA230BFE3B54
:10EABE00CA5D0BC1CDDE0CE53AF220B7C2F30ACD2A
:10EACE005318CD631136202A2921342A29213A8759
:10EADE00204704CAEF0A043AF020863DB8D4070B4B
:10EAEE00CDA811AFC4A811E1C3A50A3AF020B7C84A
:10EAFE00C3070B360021A5203E0DCDE0063E0ACD04
:10EB0E00E006AF32F0203A86203DC8F5AFCDE006E4
:10EB1E00F1C3180B3A8820473AF020B8D4070BD22D
:10EB2E005D0BD60ED2310B2FC3520BF5CD2A14CD61
:10EB3E00D506292BF1D6A8E5CA4D0B3AF0202F8326
:10EB4E00D25D0B3C473E20CDE00605C2560BE1CD13
:10EB5E005F08C3AC0A3F5265646F2066726F6D200A
:10EB6E0073746172740D0A003A1221B7C20104C1A6
:10EB7E0021640BCDA511C35205CD10117EFE223E90
:10EB8E0000328A20C2A20BCD6411CDD5063BE5CD55
:10EB9E00A8113EE5CD5605C1DAAE08237EB72BC5CA
:10EBAE00CAF509362CC3BC0BE52A2121F6AF321269
:10EBBE0021E3C3C80BCDD5062CCDC20EE3D57EFE08
:10EBCE002CCAF00B3A1221B7C25D0C3E3FCDE006C7
:10EBDE00CD5605D1C1DAAE08237EB72BC5CAF509CD
:10EBEE00D53AF220B7CA1A0CCD5F085747FE22CA93
:10EBFE000E0C3A1221B757CA0B0C163A062C2BCD17
:10EC0E006711EB21250CE3D5C3280ACD5F08CDB5DE
:10EC1E0017E3CD0617E12BCD5F08CA310CFE2CC2CF
:10EC2E00770BE32BCD5F08C2C40BD13A1221B7EBA1
:10EC3E00C28508D5B6214C0CC4A511E1C93F457853
:10EC4E007472612069676E6F7265640D0A00CDF68D
:10EC5E0009B7C2760C237E23B61E06CA1B04235E9A
:10EC6E002356EB220E21EBCD5F08FE83C25D0CC353
:10EC7E00F00B110000C4C20E221321CDB003C20D41
:10EC8E0004F9D57E23F5D5CDEC16E3E5CD5914E187
:10EC9E00CD0617E1CDFD16E5CD2917E1C190CDFDCD
:10ECAE0016CABC0CEB22A1206960C31B08F92A13FB
:10ECBE00217EFE2CC21F08CD5F08CD840CCDDE0C4C
:10ECCE00F6373AF2208FB7E8C31904CDD506282BB4
:10ECDE001600D50E01CDE403CD550D2215212A15B2
:10ECEE0021C178FE78D4CF0C7E1600D6B3DA160D7D
:10ECFE00FE03D2160DFE0117AABA57DA0704220A2E
:10ED0E0021CD5F08C3FA0C7AB7C23D0E7E220A21CE
:10ED1E00D6ACD8FE07D05F3AF2203DB37BCA9B1229
:10ED2E0007835F21F902197856BAD023CDCF0CC5CF
:10ED3E0001ED0CC5434ACDDF1658514E234623C56F
:10ED4E002A0A21C3E10CAF32F220CD5F081E24CA7D
:10ED5E001B04DAB517CDFD08D2BC0DFE262012CD50
:10ED6E005F08FE48CAF91BFE42CA691C1E02CA1B76
:10ED7E0004FEACCA550DFE2ECAB517FEADCAAB0DBC
:10ED8E00FE22CA6411FEAACA9D0EFEA7CAC810D6DC
:10ED9E00B6D2CD0DCDDA0CCDD50629C9167DCDE175
:10EDAE000C2A1521E5CDD716CDCF0CE1C9CDC20E5B
:10EDBE00E5EB2229213AF220B7CCEC16E1C9060088
:10EDCE00074FC5CD5F0879FE31DAF40DCDDA0CCDE3
:10EDDE00D5062CCDD00CEB2A2921E3E5EBCD2D1455
:10EDEE00EBE3C3FC0DCDA30DE311B70DD501580117
:10EDFE00094E236669E915FEADC8FE2DC814FE2B1B
:10EE0E00C8FEACC82BC9F6AFF5CDCF0CCD1109F1AC
:10EE1E00EBC1E3EBCDEF16F5CD1109F1C1792186EA
:10EE2E0010C2380EA34F78A2E9B34F78B2E9214F42
:10EE3E000E3AF2201F7A175F166478BAD0C33E0DD1
:10EE4E00510E79B71FC1D1F5CDD10C21930EE5CA64
:10EE5E002917AF32F220D5CDE8127E23234E23465A
:10EE6E00D1C5F5CDEC12CDFD16F157E17BB2C87AC6
:10EE7E00D601D8AFBB3CD0151D0ABE2303CA7B0EEC
:10EE8E003FC3B9163C8FC1A0C6FF9FC3C016165A0A
:10EE9E00CDE10CCDCF0CCD11097B2F4F7A2FCD8626
:10EEAE0010C1C3ED0C2BCD5F08C8CDD5062C01B417
:10EEBE000EC5F6AF32F12046CDFD08DA0704AF4F8E
:10EECE0032F220CD5F08DADE0ECDFD08DAEB0E4F02
:10EEDE00CD5F08DADF0ECDFD08D2DF0ED624C2FAE2
:10EEEE000E3C32F2200F814FCD5F083A10213DCA01
:10EEFE00A70FF20A0F7ED628CA7F0FAF321021E578
:10EF0E0050592A2321CDCF06112521CAEF152A1DCE
:10EF1E0021EB2A1B21CDCF06CA3D0F799623C23293
:10EF2E000F789623CA710F23232323C3240FE1E303
:10EF3E00D511BF0DCDCF06D1CA740FE3E5C50106BD
:10EF4E00002A1F21E509C1E5CDD303E1221F21606F
:10EF5E0069221D212B3600CDCF06C2630FD173233C
:10EF6E007223EBE1C9322C2121A303222921E1C90D
:10EF7E00E52AF120E357D5C5CD0509C1F1EBE3E54F
:10EF8E00EB3C577EFE2CCA850FCDD50629221521C6
:10EF9E00E122F1201E00D511E5F52A1D213E19EBC7
:10EFAE002A1F21EBCDCF06CADF0F7EB923C2C10FB8
:10EFBE007EB8235E235623C2AD0F3AF120B7C2109E
:10EFCE0004F1444DCAEF1596CA3D101E10C31B0422
:10EFDE00110400F1CA2609712370234FCDE40323D7
:10EFEE0023220A2171233AF1201779010B00D20254
:10EFFE0010C10371237023F5E5CD9A17EBE1F13DB6
:10F00E00C2FA0FF5424BEB19DAFC03CDED03221FCA
:10F01E00212B3600CDCF06C2201003572A0A215EBF
:10F02E00EB2909EB2B2B73237223F1DA6110474F77
:10F03E007E2316E15E235623E3F5CDCF06D2DA0FFB
:10F04E00E5CD9A17D119F13D444DC242102929C17F
:10F05E0009EB2A1521C92A1F21EB210000393AF2AA
:10F06E0020B7CA8110CDE812CDE8112A9F20EB2AD5
:10F07E0008217D934F7C9A41501E0021F220730689
:10F08E0090C3C5163AF02047AFC38710CD1E11CDE1
:10F09E00101101F609C5D5CDD50628CDC20EE5EB6A
:10F0AE002B562B5EE1CDCF0CCDD50629CDD506B492
:10F0BE00444DE3712370C35D11CD1E11D5CDA30D4B
:10F0CE00CDCF0CE35E2356237AB3CA13047E236698
:10F0DE006FE52A2321E32223212A2721E52A252150
:10F0EE00E5212521D5CD0617E1CDCC0C2BCD5F0822
:10F0FE00C20704E1222521E1222721E1222321E179
:10F10E00C9E52AA120237CB5E1C01E16C31B04CD80
:10F11E00D506A73E80321021B647CDC70EC3CF0C01
:10F12E00CDCF0CCD5318CD6311CDE812014313C5CD
:10F13E007E2323E5CDBE11E14E2346CD5711E56F5B
:10F14E00CDDB12D1C9CDBE11210421E57723237366
:10F15E002372E1C92B062250E50EFF237E0CB7CA9F
:10F16E007911BACA7911B8C26A11FE22CC5F08E3CE
:10F17E0023EB79CD57111104212AF6202229213EA5
:10F18E000132F220CD0917CDCF0622F620E17EC046
:10F19E001E1EC31B0423CD6311CDE812CDFD161C1C
:10F1AE001DC80ACDE006FE0DCC110B03C3AF11B77F
:10F1BE000EF1F52A9F20EB2A08212F4F06FF092377
:10F1CE00CDCF06DADC1122082123EBF1C9F11E1A8C
:10F1DE00CA1B04BFF501C011C52AF4202208212143
:10F1EE000000E52A9F20E521F820EB2AF620EBCD42
:10F1FE00CF0601F911C24D122A1B21EB2A1D21EB5C
:10F20E00CDCF06CA20127E2323B7CD5012C30A12C9
:10F21E00C1EB2A1F21EBCDCF06CA7612CDFD167B90
:10F22E00E509B7F21F12220A21E14E060009092351
:10F23E00EB2A0A21EBCDCF06CA2012013F12C5F6EA
:10F24E00807E23235E235623F0B7C8444D2A08211F
:10F25E00CDCF066069D8E1E3CDCF06E3E56069D096
:10F26E00C1F1F1E5D5C5C9D1E17DB4C82B462B4E10
:10F27E00E52B2B6E26000950592B444D2A0821CD23
:10F28E00D603E171237069602BC3EB11C5E52A2902
:10F29E0021E3CD550DE3CDD00C7EE52A2921E5865F
:10F2AE001E1CDA1B04CD5411D1CDEC12E3CDEB12A2
:10F2BE00E52A0621EBCDD212CDD21221EA0CE3E5DE
:10F2CE00C38511E1E37E23234E23466F2C2DC80AFE
:10F2DE00120313C3DC12CDD00C2A2921EBCD061359
:10F2EE00EBC0D550591B4E2A0821CDCF06C20413B0
:10F2FE004709220821E1C92AF6202B462B4E2B2B3B
:10F30E00CDCF06C022F620C9019610C5CDE512AFAD
:10F31E005732F2207EB7C9019610C5CD1B13CA26EF
:10F32E000923235E23561AC93E01CD5411CD301444
:10F33E002A062173C1C38511CDE013AFE34FE57EDD
:10F34E00B8DA551378110E00C5CDBE11C1E1E52313
:10F35E002346236668060009444DCD57116FCDDB59
:10F36E0012D1CDEC12C38511CDE013D1D51A90C3B5
:10F37E004B13EB7ECDE5130405CA2609C51EFFFE11
:10F38E0029CA9A13CDD5062CCD2D14CDD50629F12B
:10F39E00E3014D13C53DBE0600D04F7E91BB47D84D
:10F3AE0043C9CD1B13CACE145F23237E23666FE59C
:10F3BE00194672E3C57EFE24C2CF13CDF91B180D7C
:10F3CE00FE25C2D913CD691C1803CDB517C1E17046
:10F3DE00C9EBCDD50629C1D1C543C9CD3014328470
:10F3EE0020CD8320C39610CD1A14C34B20CD1A14F2
:10F3FE00F51E002BCD5F08CA1014CDD5062CCD2DD1
:10F40E0014C1CD8320ABA0CA1114C9CD2D143284E2
:10F41E0020324C20CDD5062CC32D14CD5F08CDCC7B
:10F42E000CCD0B097AB7C226092BCD5F087BC9CD4F
:10F43E0011091AC39610CDCC0CCD1109D5CDD50618
:10F44E002CCD2D14D112C9212C19CDFD16C3681443
:10F45E00CDFD1621C1D1CDD71678B7C83A2C21B71C
:10F46E00CAEF1690D282142F3CEBCDDF16EBCDEF08
:10F47E0016C1D1FE19D0F5CD141767F1CD2D15B4E7
:10F48E00212921F2A814CD0D15D2EE142334CA165B
:10F49E00042E01CD4315C3EE14AF90477E9B5F2320
:10F4AE007E9A57237E994FDC19156863AF4779B75B
:10F4BE00C2DB144A54656F78D608FEE0C2BC14AFA6
:10F4CE00322C21C905297A1757798F4FF2D3147828
:10F4DE005C45B7CAEE14212C218677D2CE14C8789B
:10F4EE00212C21B7FC001546237EE680A94FC3EFE1
:10F4FE00161CC014C00CC00E8034C0C316047E830C
:10F50E005F237E8A57237E894FC9212D217E2F7737
:10F51E00AF6F90477D9B5F7D9A577D994FC90600CF
:10F52E00D608DA3C15435A510E00C32F15C6096F83
:10F53E00AF2DC8791F4F7A1F577B1F5F781F47C3A8
:10F54E003F150000008103AA561980F122768045EE
:10F55E00AA3882CDAE16B7EA2609212C217E0135B6
:10F56E008011F30490F570D5C5CD6814C1D104CDCA
:10F57E000416215115CD5F14215515CDF6190180B4
:10F58E0080110000CD6814F1CD29180131801118B9
:10F59E007221C1D1CDAE16C82E00CD6C1679323B7C
:10F5AE0021EB223C21010000505821B914E521C560
:10F5BE0015E5E52129217E23B7CAF115E52E081F91
:10F5CE006779D2DF15E52A3C2119EBE13A3B218917
:10F5DE001F4F7A1F577B1F5F781F472D7CC2CE159A
:10F5EE00E1C9435A514FC9CDDF16012084110000E5
:10F5FE00CDEF16C1D1CDAE16CA0A042EFFCD6C16B4
:10F60E0034342B7E3257202B7E3253202B7E324FBA
:10F61E002041EBAF4F575F325A20E5C57DCD4E20CE
:10F62E00DE003FD23C16325A20F1F137D2C1E179D9
:10F63E003C3D1FFAEF14177B175F7A175779174F58
:10F64E00297817473A5A2017325A2079B2B3C2296D
:10F65E0016E5212C2135E1C22916C3160478B7CA46
:10F66E0090167D212C21AE80471FA878F28F16C6EA
:10F67E008077CAEF15CD1417772BC9CDAE162FE1B3
:10F68E00B7E1F2CE14C31604CDFA1678B7C8C60287
:10F69E00DA160447CD6814212C2134C0C316043A5F
:10F6AE002C21B7C83A2B21FE2F179FC03CC9CDAED7
:10F6BE00160688110000212C214F7006002336807B
:10F6CE0017C3B614CDAE16F0212B217EEE8077C96E
:10F6DE00EB2A2921E3E52A2B21E3E5EBC9CDFD1623
:10F6EE00EB2229216069222B21EBC92129215E23DE
:10F6FE0056234E234623C911292106041A771323B4
:10F70E0005C20B17C9212B217E07371F773F1F23F9
:10F71E0023777907371F4F1FAEC978B7CAAE1621A8
:10F72E00B716E5CDAE1679C8212B21AE79F8CD43AB
:10F73E00171FA9C92378BEC02B79BEC02B7ABEC0B5
:10F74E002B7B96C0E1E1C9474F575FB7C8E5CDFAAD
:10F75E0016CD1417AE67FC7A173E9890CD2D157CFA
:10F76E0017DC00150600DC1915E1C91B7AA33CC095
:10F77E000BC9212C217EFE983A2921D07ECD561719
:10F78E0036987BF57917CDB614F1C921000078B102
:10F79E00C83E1029DADA0FEB29EBD2B01709DADA04
:10F7AE000F3DC2A217C9FE2DF5CAC117FE2BCAC145
:10F7BE00172BCDCE1447575F2F4FCD5F08DA121897
:10F7CE00FE2ECAED17FE45C2F117CD5F08CD050E10
:10F7DE00CD5F08DA341814C2F117AF935F0C0CCA60
:10F7EE00C917E57B90F40A18F20018F5CDF615F15D
:10F7FE003CC2F417D1F1CCD716EBC9C8F5CD97168C
:10F80E00F13DC9D557788947C5E5D5CD9716F1D6BF
:10F81E0030CD2918E1C1D1C3C917CDDF16CDC01621
:10F82E00C1D1C368147B0707830786D6305FC3DF59
:10F83E0017E5219F03CDA511E1EBAF0698CDC516B7
:10F84E0021A411E5212E21E5CDAE163620F2611848
:10F85E00362D233630CA1719E5FCD716AFF5CD1D58
:10F86E001901439111F84FCD2917B7E28E18F1CD3A
:10F87E000B18F5C37018CDF615F13CF5CD1D19CD4D
:10F88E0056143CCD5617CDEF16010603F1813CFA06
:10F89E00AA18FE08D2AA183C473E023D3DE1F511DA
:10F8AE00301905C2BB18362E2336302305362ECC22
:10F8BE000417C5E5D5CDFA16E1062F047B965F2316
:10F8CE007A9E5723799E4F2B2BD2CA18CD0D152316
:10F8DE00CDEF16EBE17023C10DC2BB1805CAFB18A4
:10F8EE002B7EFE30CAEF18FE2EC40417F1CA1A1969
:10F8FE00364523362BF20B19362D2F3C062F04D608
:10F90E000AD20D19C63A237023772371E1C9017407
:10F91E009411F723CD2917B7E1E28518E90000000D
:10F92E0080A08601102700E803006400000A000092
:10F93E0001000021D716E3E9CDDF16212C19CDECFD
:10F94E0016C1D1CDAE1678CA9519F26019B7CA0A8A
:10F95E0004B7CACF14D5C579F67FCDFA16F27D1944
:10F96E00D5C5CD8117C1D1F5CD2917E17C1FE12277
:10F97E002B21E1222921DC4219CCD716D5C5CD6227
:10F98E0015C1D1CDA315CDDF16013881113BAACDFE
:10F99E00A3153A2C21FE88D28A16CD8117C680C6B1
:10F9AE0002DA8A16F5215115CD5914CD9A15F1C1E9
:10F9BE00D1F5CD6514CDD71621D519CD051A110067
:10F9CE0000C14AC3A31508402E9474704F2E776E53
:10F9DE0002887AE6A02A7C50AAAA7EFFFF7F7F00CB
:10F9EE0000808100000081CDDF1611A115D5E5CD77
:10F9FE00FA16CDA315E1CDDF167E23CDEC1606F15A
:10FA0E00C1D13DC8D5C5F5E5CDA315E1CDFD16E5B2
:10FA1E00CD6814E1C30E1ACDAE16215E20FA871AF8
:10FA2E00217F20CDEC16215E20C886E607060077E2
:10FA3E002387874F09CDFD16CDA3153A5D203CE6F1
:10FA4E00030600FE0188325D20218B1A87874F093D
:10FA5E00CD5914CDFA167B59EE4F4F36802B4636C4
:10FA6E0080215C20347ED6ABC27E1A770C151CCD5D
:10FA7E00B914217F20C30617772B772B77C3621A11
:10FA8E0068B1466899E9926910D1756821E51ACD79
:10FA9E005914CDDF1601498311DB0FCDEF16C1D1FD
:10FAAE00CD0416CDDF16CD8117C1D1CD651421E958
:10FABE001ACD5F14CDAE1637F2D11ACD5614CDAE87
:10FACE0016B7F5F4D71621E91ACD5914F1D4D71675
:10FADE0021ED1AC3F619DB0F49810000007F05BA2C
:10FAEE00D71E866426998758342387E05DA586DA6B
:10FAFE000F4983CDDF16CDA11AC1E1CDDF16EBCDB7
:10FB0E00EF16CD9B1AC30216CDAE16FC4219FCD7CA
:10FB1E00163A2C21FE81DA341B0100815159CD0495
:10FB2E0016215F14E5213E1BCDF61921E51AC909F0
:10FB3E004AD73B78026E847BFEC12F7C74319A7D4E
:10FB4E00843D5A7DC87F917EE4BB4C7E6CAAAA7F11
:10FB5E0000000081C9D7C93E0CC39C1CCD2D147B5F
:10FB6E00328720C9CDCC0CCD1109ED538B20ED532E
:10FB7E008D20C9CD1109D5E146237EC38710CDCC8A
:10FB8E000CCD1109D5CDD5062CCDCC0CCD1109E35C
:10FB9E00732372E1C9CDCF0CCD1109C5212E217A67
:10FBAE00FE00280CCDDC1B78FE302802702371235A
:10FBBE007BCDDC1B7AFE00200578FE3028027023F8
:10FBCE007123AF772377C1212E21C3351147E60F5D
:10FBDE00FE0A3802C607C6304F780F0F0F0FE60F1A
:10FBEE00FE0A3802C607C63047C9EB210000CD1207
:10FBFE001CDA321C1805CD121C381F29292929B5EB
:10FC0E006F18F3131AFE20CA121CD630D8FE0A380B
:10FC1E0005D607FE0AD8FE103FC9EB7A4BE5CD8616
:10FC2E0010E1C91E26C31B04CDCF0CCD1109C52171
:10FC3E002E2106110578FE012808CB13CB1230F4C5
:10FC4E001804CB13CB123E30CE0077230520F3AF32
:10FC5E00772377C1212E21C33511EB210000CD86EC
:10FC6E001CDA941CD63029B56FCD861C30F6EB7A93
:10FC7E004BE5CD8610E1C9131AFE20CA861CFE3054
:10FC8E00D8FE323FC91E28C31B04C34C00C3080054
:10FC9E00C300003E00329220C36700F5A0C1B83EFB
:10FCAE0000C9CDE006C3070B0000000000000000F5
:10FCBE000000000000000000000000000000000036
:10FCCE000000000000000000000000000000000026
:10FCDE000000000000000000000000000000000016
:10FCEE000000000000000000000000000000000006
:02FFFE00000001
:020000040001F9
:10000000080E0001B16F04012093C292CA922091A0
:10001000C290CA90000E186F000EC16E000EC96E1D
:100020002095C294CA94000E086F000EBF6E000E99
:10003000C76E000E106F000EC06E000EC86E3F0E31
:100040000201036F04010095C694E20E436F000E97
:10005000446F060E456F000E476F4691468B468FE4
:100060000097BE86C6960099BE88C698010E02010A
:10007000D56FA00ED46FD189D18B0401009FC68E9D
:10008000070E0201766F0401009DBE8CC69C260EF1
:100090000201076FD28F000E046F000E046E000E77
:1000A000036E03C501F504C502F502C5C1F401C51F
:1000B000BFF4BE96FF0E0324F66EDF0E0420F76E2B
:1000C0000800F5C4C0F4BE86034A042A200E045C6E
:1000D000D8A0E7D7000E0401186F1969C9682095E8
:1000E0002185CA84000E086F0969C768000E106F69
:1000F0001169C86800910181C68000930183C6829E
:10010000009B018BC68A189D198DC98C189FC18EC2
:10011000C99E010E0201616F000E626F1E0E636FB9
:10012000050E656F0E0E676F0F0E686F010E056F7F
:10013000020E046F040E206F000E0001D56F000E3A
:10014000D86F020ED96F040EDA6F7F0EDB6F010ECF
:10015000DC6F080EDD6F100EDE6F400EDF6F800E5D
:10016000D76F820ED66F010ED56F000ED86F020EBC
:10017000D96F040EDA6F7F0EDB6F010EDC6F080E95
:10018000DD6F200EDE6F400EDF6F800ED76F820EA8
:10019000D66F020ED56F010ED86F060ED96F070EFF
:1001A000DA6F7F0EDB6F010EDC6F080EDD6F100E55
:1001B000DE6F400EDF6F800ED76F820ED66F030E9C
:1001C000D56F350ED86F7F0ED96F7F0EDA6F7F0E29
:1001D000DB6F010EDC6F000EDD6F000EDE6F000EB8
:1001E000DF6F820ED76F8C0ED66F000ED46F550E58
:1001F0000401596FAA0E596F5991080E5D6F000ED8
:100200005E6F000E5F6F550E596FAA0E596F5981C0
:10021000B79AA78AD68EC280C282FFD7CFC401F513
:10022000CEAA0AD0400E0118D8B4D0C4C9F2000139
:10023000D785D795B79A1100000EC86E410E0118E8
:10024000D8A403D0B7C4C0F408D0400E0118D8A475
:1002500003D0C7C2C0F401D0C0680001D785D1AEB9
:10026000FED7C8680001D795B79A1100026A016AE3
:100270000401080E5D6F000E5E6F000E5F6F000ED2
:0A028000F86E000100EF80F011009D
:020000040020DA
:10000000FF0FFF0FFF0FFF0FFF0FFF0FFF0FFF0F80
:10001000FF0FFF0FFF0FFF0FFF0FFF0FFF0FFF0F70
:10002000FF0FFF0FFF0FFF0FFF0FFF0FFF0FFF0F60
:10003000FF0FFF0FFF0FFF0FFF0FFF0FFF0FFF0F50
:020000040030CA
:0A0000008CFFFFF79FFFFFFFFFFFDB
:00000001FF
