:0400000081EF00F09C
:100008008E488E488E488E4840008E4840008E4864
:100018008E488E488E488E488E488E488E488E4828
:100028008E484000400040008E488E488E488E48DA
:100038008E488E488E488E488E488E488E488E4808
:100048008E488E488E488E48400040008E488E4824
:100058008E488E488E4840008E488E488E488E487E
:100068008E488E488E488E488E488E488E488E48D8
:100078008E488E488E488E4840008E488E488E485E
:100088008E488E488E488E488E488E488E488E48B8
:100098008E488E488E488E484000E7474000400012
:1000A8008E488E488E488E488E488E488E488E4898
:1000B8008E488E488E488E488E488E488E488E4888
:1000C8008E488E488E488E488E488E488E488E4878
:1000D8008E488E488E488E488E488E488E488E4868
:1000E80040008E488E488E48400040004000400046
:0E00F8008E488E488E488E48FF00C8EF90F06C
:10E3260000F331ED20C33C00FFC33100FFFFFFFFC8
:10E33600FFC31B00FFFFFFFFFFC32C00DB41CB47E2
:10E3460028FADB40FE61D8FE7BD0E6DFC9DB41CB95
:10E3560047C9F5DB41CB4F28FAF1D340C9C33F008B
:10E36600C34500C3CE00C34C0011098710214520C8
:10E37600F93E00ED39323E00ED39363E80ED391F6B
:10E386003E7FED391EC3A21C1138030663214520CA
:10E396001A77231305C26F00F9CD3905CD070B3265
:10E3A600EF20323E2121A221237CB5CA96007E476A
:10E3B6002F77BE70CA87002B11A121CDCF06DAD7E1
:10E3C6000011CEFF22F42019229F20CD14052A9F8A
:10E3D6002011EFFF19113E217D936F7C9A67E5218D
:10E3E600EF00CDA511E1CD481821E000CDA51131F2
:10E3F600AB20CD3905C35204212601CDA511C3DDBD
:10E406000020427974657320667265650D0A000006
:10E416005A38302042415349432056657220342EE3
:10E4260037620D0A436F70797269676874202843F2
:10E43600292031393738206279204D6963726F732C
:10E446006F66740D0A00004D656D6F7279207369F1
:10E456007A65206E6F7420656E6F7567680D0A5455
:10E4660068652073797374656D2069732073746FA2
:10E47600707065642E0D0A0000BD168117D316480C
:10E48600206510EA1393104719261A621595199BF1
:10E496001AA11A021B171B3E14821B962017132F54
:10E4A60011B11326133713A41B371C471377138197
:10E4B60013C54E44C64F52CE455854C4415441C963
:10E4C6004E505554C4494DD2454144CC4554C74F8E
:10E4D600544FD2554EC946D24553544F5245C74F55
:10E4E600535542D2455455524ED2454DD3544F50B2
:10E4F600CF5554CF4ECE554C4CD7414954C44546C2
:10E50600D04F4B45C44F4B45D3435245454ECC495E
:10E516004E4553C34C53D749445448CD4F4E4954A6
:10E526004F52D34554D245534554D052494E54C305
:10E536004F4E54CC495354C34C454152C34C4F41A2
:10E5460044C353415645CE4557D4414228D44FC6BD
:10E556004ED3504328D448454ECE4F54D3544550FD
:10E56600ABADAAAFDEC14E44CF52BEBDBCD3474E03
:10E57600C94E54C14253D55352C65245C94E50D0C6
:10E586004F53D35152D24E44CC4F47C55850C34F28
:10E5960053D3494ED4414EC1544ED045454BC44544
:10E5A600454BD04F494E54CC454ED3545224D641B8
:10E5B6004CC15343C3485224C8455824C2494E242B
:10E5C600CC45465424D24947485424CD4944248056
:10E5D600A908A607810CF609880BBD0EB70B0D0A14
:10E5E600B3099609850A6F08A209D109F809A7088F
:10E5F600F613670AE808FC139B1045148D1BF809EF
:10E60600731B661B6B1B9F1C99209C20A90AD508AF
:10E616001B075009F809F8091305792F18796314AF
:10E626007CA1157C02167F501950160E46150E4E0B
:10E6360046534E52474F4446434F564F4D554C4214
:10E646005344442F304944544D4F534C5353544331
:10E656004E55464D4F4858424EC3CE00C32609D3A9
:10E6660000C9D6006F7CDE006778DE00473E00C931
:10E67600000000354ACA99391C76982295B3980A43
:10E68600DD479853D199990A1A9F9865BCCD98D6BB
:10E69600773E9852C74F80DB00C901FF1C0000146B
:10E6A60000140000000000C34C06C30000C30000B5
:10E6B600C30000A221FEFF3F21204572726F720047
:10E6C60020696E20004F6B0D0A0000427265616B77
:10E6D60000210400397E23FE81C04E234623E569CE
:10E6E600607AB3EBCACA03EBCDCF06010D00E1C8D1
:10E6F60009C3B403CDED03C5E3C1CDCF067E02C881
:10E706000B2BC3D903E52A1F21060009093EE53E66
:10E71600D0956F3EFF9CDAFC036739E1D81E0CC327
:10E726001B042A0E2122A1201E02011E14011E0016
:10E73600011E12011E22011E0A011E18CD390532C4
:10E746008A20CDFA0A210E03573E3FCDE006197EF8
:10E75600CDE006CD5F08CDE006219803CDA5112AB0
:10E76600A12011FEFFCDCF06CA4C007CA53CC440BB
:10E77600183EC1AF328A20CDFA0A21A403CDA511D5
:10E7860021FFFF22A120CD4C06DA5F04CD5F083CB5
:10E796003DCA5F04F5CD2B09D5CD630547D1F1D22E
:10E7A6003F08D5C5AF321121CD5F08B7F5CDF304CB
:10E7B600DA9804F1F5CACC09B7C5D2AF04EB2A1B27
:10E7C600211A020313CDCF06C2A0046069221B21C1
:10E7D600D1F1CAD6042A1B21E3C109E5CDD303E151
:10E7E600221B21EB74D123237323722311A6201A33
:10E7F600772313B7C2CE04CD1F0523EB626B7E23AE
:10E80600B6CA5F04232323AFBE23C2E704EB7323F8
:10E8160072C3DB042AA320444D7E23B62BC82323D0
:10E826007E23666FCDCF0660697E23666F3FC83F45
:10E83600D0C3F604C02AA320AF77237723221B2157
:10E846002AA3202B2213212AF420220821AFCD6FE0
:10E85600082A1B21221D21221F21C12A9F20F921BE
:10E86600F82022F620AF6F672219213210212223C9
:10E8760021E5C52A1321C93E3FCDE0063E20CDE065
:10E8860006C39320AF32F3200E0511A6207EFE208C
:10E89600CAEB0547FE22CA0B06B7CA12063AF32090
:10E8A600B77EC2EB05FE3F3E9ECAEB057EFE30DA22
:10E8B6009605FE3CDAEB05D5118F01C501E705C5C6
:10E8C600067F7EFE61DAAF05FE7BD2AF05E65F7797
:10E8D6004EEB23B6F2B105047EE67FC8B9C2B10598
:10E8E600EBE5131AB7FAE3054F78FE88C2D205CDD9
:10E8F6005F082B237EFE61DADB05E65FB9CAC10538
:10E90600E1C3AF0548F1EBC9EB79C1D12312130C72
:10E91600D63ACAF905FE49C2FC0532F320D654C2DE
:10E926006C05477EB7CA1206B8CAEB0523120C134C
:10E93600C3020621A5201213121312C93A8920B761
:10E946003E00328920C22F0605CA4C06CDE0063E9F
:10E95600052BCA43067ECDE006C35506052BCDE042
:10E9660006C25506CDE006CD070BC34C0621A620F0
:10E976000601AF328920CD0A074FFE7FCA1B063A31
:10E986008920B7CA6E063E00CDE006AF32892079EF
:10E99600FE07CAB206FE03CC070B37C8FE0DCA0235
:10E9A6000BFE15CA4606FE40CA4306FE5FCA3B0674
:10E9B600FE08CA3B06FE12C2AD06C5D5E53600CD39
:10E9C600B11C21A620CDA511E1D1C1C35506FE205B
:10E9D600DA550678FE493E07D2C70679713211210B
:10E9E6002304CDE006C35506CDE0063E08C3C106A6
:10E9F6007C92C07D93C97EE3BE23E3CA5F08C3074A
:10EA060004F53A8A20B7C2DA11F1C5F5FE20DA0418
:10EA1600073A8720473AF02004CA000705B8CC0712
:10EA26000B3C32F020F1C1CD9C1CC9CD641BE67FA6
:10EA3600FE0FC03A8A202F328A20AFC9CD2B09C0DB
:10EA4600C1CDF304C5CD7107E14E23462378B1CA83
:10EA56005204CD7A07CD8A08C5CD070B5E2356230F
:10EA6600E5EBCD48183E20E1CDE0067EB723CA2768
:10EA760007F24707D67F4F1190011A13B7F25907CD
:10EA86000DC25907E67FCDE0061A13B7F26307C336
:10EA96004A07E52A8D20228B20E1C9E5D52A8B205D
:10EAA60011FFFFED5A228B20D1E1F0E52A8D2022BD
:10EAB6008B20CD641BFE03CA9D07E1C37A072A8D0E
:10EAC60020228B20C3D1003E64321021CD0D0AC115
:10EAD600E5CDF609220C2121020039CDB403D1C2BD
:10EAE600D60709D52B562B5E2323E52A0C21CDCF3D
:10EAF60006E1C2BA07D1F9EB0E08CDE403E52A0C0C
:10EB060021E3E52AA120E3CDCF0CCDD506A6CDCCB9
:10EB16000CE5CDFA16E1C5D5010081515A7EFEAB52
:10EB26003E01C21208CD5F08CDCC0CE5CDFA16CD5C
:10EB3600AE16E1C5D5F533E52A1321E30681C533C3
:10EB4600CD8A082213217EFE3ACA3F08B7C20704BF
:10EB5600237E23B6CAB108235E2356EB22A120EBFF
:10EB6600CD5F08111F08D5C8D680DA0D0AFE25D25A
:10EB76000704074F0600EB21AF02094E2346C5EBFB
:10EB8600237EFE3AD0FE20CA5F08FE303F3C3DC9D8
:10EB9600EB2AA320CA8408EBCD2B09E5CDF304604C
:10EBA60069D1D2CC092B222121EBC9DFC8D7FE1BA4
:10EBB6002811FE03280DFE13C0D7FE11C8FE032838
:10EBC6000718F63EFF329220C0F6C022132121F626
:10EBD600FFC12AA120F57DA43CCAC4082217212A18
:10EBE6001321221921AF328A20CDFA0AF121AA0374
:10EBF600C23B04C352042A19217CB51E20CA1B0439
:10EC0600EB2A172122A120EBC9CD2D14C032862074
:10EC1600C9E52A8F2006004F09228F20E1C97EFE12
:10EC260041D8FE5B3FC9CD5F08CDCC0CCDAE16FA00
:10EC360026093A2C21FE90DA561701809011000021
:10EC4600E5CD2917E151C81E08C31B042B1100008E
:10EC5600CD5F08D0E5F5219819CDCF06DA07046215
:10EC66006B19291929F1D6305F160019EBE1C32F6C
:10EC760009CA2305CD08092BCD5F08E52AF420CA69
:10EC86007309E1CDD5062CD5CD08092BCD5F08C279
:10EC96000704E3EB7D935F7C9A57DAFC03E52A1BB6
:10ECA6002101280009CDCF06D2FC03EB229F20E1EB
:10ECB60022F420E1C32305CA1F05CD2305011F0841
:10ECC600C3B2090E03CDE403C1E5E52AA120E33E64
:10ECD6008CF533C5CD2B09CDF809E52AA120CDCF7A
:10ECE60006E123DCF604D4F30460692BD81E0EC3B8
:10ECF6001B04C016FFCDB003F9FE8C1E04C21B0414
:10ED0600E122A120237CB5C2F0093A1121B7C251F4
:10ED160004211F08E33EE1013A0E00060079484748
:10ED26007EB7C8B8C823FE22CAFC09C3FF09CDC2F4
:10ED36000ECDD506B4D53AF220F5CDDE0CF1E322A0
:10ED460013211FCDD10CCA600AE52A2921E5232308
:10ED56005E23562AA320CDCF06D24F0A2A9F20CD66
:10ED6600CF06D1D2570A210421CDCF06D2570A3E6B
:10ED7600D1CD0613EBCD3F11CD0613E1CD0917E139
:10ED8600C9E5CD0617D1E1C9CD2D147E47FE8CCA43
:10ED9600760ACDD506882B4B0D78CA4708CD2C09A7
:10EDA600FE2CC0C3770ACDDE0C7EFE88CA930ACD40
:10EDB600D506A92BCDCF0CCDAE16CAF809CD5F0866
:10EDC600DAB309C346082BCD5F08CA070BC8FEA5F0
:10EDD600CA3A0BFEA8CA3A0BE5FE2CCA230BFE3B29
:10EDE600CA5D0BC1CDDE0CE53AF220B7C2F30ACDFF
:10EDF6005318CD631136202A2921342A29213A872E
:10EE0600204704CAEF0A043AF020863DB8D4070B1F
:10EE1600CDA811AFC4A811E1C3A50A3AF020B7C81E
:10EE2600C3070B360021A5203E0DCDE0063E0ACDD8
:10EE3600E006AF32F0203A86203DC8F5AFCDE006B9
:10EE4600F1C3180B3A8820473AF020B8D4070BD202
:10EE56005D0BD60ED2310B2FC3520BF5CD2A14CD36
:10EE6600D506292BF1D6A8E5CA4D0B3AF0202F83FB
:10EE7600D25D0B3C473E20CDE00605C2560BE1CDE8
:10EE86005F08C3AC0A3F5265646F2066726F6D20DF
:10EE960073746172740D0A003A1221B7C20104C17B
:10EEA60021640BCDA511C35205CD10117EFE223E65
:10EEB60000328A20C2A20BCD6411CDD5063BE5CD2A
:10EEC600A8113EE5CD5605C1DAAE08237EB72BC59F
:10EED600CAF509362CC3BC0BE52A2121F6AF32123E
:10EEE60021E3C3C80BCDD5062CCDC20EE3D57EFEDD
:10EEF6002CCAF00B3A1221B7C25D0C3E3FCDE0069C
:10EF0600CD5605D1C1DAAE08237EB72BC5CAF509A1
:10EF1600D53AF220B7CA1A0CCD5F085747FE22CA67
:10EF26000E0C3A1221B757CA0B0C163A062C2BCDEB
:10EF36006711EB21250CE3D5C3280ACD5F08CDB5B3
:10EF460017E3CD0617E12BCD5F08CA310CFE2CC2A4
:10EF5600770BE32BCD5F08C2C40BD13A1221B7EB76
:10EF6600C28508D5B6214C0CC4A511E1C93F457828
:10EF76007472612069676E6F7265640D0A00CDF662
:10EF860009B7C2760C237E23B61E06CA1B04235E6F
:10EF96002356EB220E21EBCD5F08FE83C25D0CC328
:10EFA600F00B110000C4C20E221321CDB003C20D16
:10EFB60004F9D57E23F5D5CDEC16E3E5CD5914E15C
:10EFC600CD0617E1CDFD16E5CD2917E1C190CDFDA2
:10EFD60016CABC0CEB22A1206960C31B08F92A13D0
:10EFE600217EFE2CC21F08CD5F08CD840CCDDE0C21
:10EFF600F6373AF2208FB7E8C31904CDD506282B89
:10F006001600D50E01CDE403CD550D2215212A1586
:10F0160021C178FE78D4CF0C7E1600D6B3DA160D51
:10F02600FE03D2160DFE0117AABA57DA0704220A02
:10F0360021CD5F08C3FA0C7AB7C23D0E7E220A21A3
:10F04600D6ACD8FE07D05F3AF2203DB37BCA9B12FE
:10F0560007835F21F902197856BAD023CDCF0CC5A4
:10F0660001ED0CC5434ACDDF1658514E234623C544
:10F076002A0A21C3E10CAF32F220CD5F081E24CA52
:10F086001B04DAB517CDFD08D2BC0DFE262012CD25
:10F096005F08FE48CAF91BFE42CA691C1E02CA1B4B
:10F0A60004FEACCA550DFE2ECAB517FEADCAAB0D91
:10F0B600FE22CA6411FEAACA9D0EFEA7CAC810D6B1
:10F0C600B6D2CD0DCDDA0CCDD50629C9167DCDE14A
:10F0D6000C2A1521E5CDD716CDCF0CE1C9CDC20E30
:10F0E600E5EB2229213AF220B7CCEC16E1C906005D
:10F0F600074FC5CD5F0879FE31DAF40DCDDA0CCDB8
:10F10600D5062CCDD00CEB2A2921E3E5EBCD2D1429
:10F11600EBE3C3FC0DCDA30DE311B70DD5015801EB
:10F12600094E236669E915FEADC8FE2DC814FE2BEF
:10F13600C8FEACC82BC9F6AFF5CDCF0CCD1109F181
:10F14600EBC1E3EBCDEF16F5CD1109F1C1792186BF
:10F1560010C2380EA34F78A2E9B34F78B2E9214F17
:10F166000E3AF2201F7A175F166478BAD0C33E0DA6
:10F17600510E79B71FC1D1F5CDD10C21930EE5CA39
:10F186002917AF32F220D5CDE8127E23234E23462F
:10F19600D1C5F5CDEC12CDFD16F157E17BB2C87A9B
:10F1A600D601D8AFBB3CD0151D0ABE2303CA7B0EC1
:10F1B6003FC3B9163C8FC1A0C6FF9FC3C016165ADF
:10F1C600CDE10CCDCF0CCD11097B2F4F7A2FCD86FB
:10F1D60010C1C3ED0C2BCD5F08C8CDD5062C01B4EC
:10F1E6000EC5F6AF32F12046CDFD08DA0704AF4F63
:10F1F60032F220CD5F08DADE0ECDFD08DAEB0E4FD7
:10F20600CD5F08DADF0ECDFD08D2DF0ED624C2FAB6
:10F216000E3C32F2200F814FCD5F083A10213DCAD5
:10F22600A70FF20A0F7ED628CA7F0FAF321021E54C
:10F2360050592A2321CDCF06112521CAEF152A1DA3
:10F2460021EB2A1B21CDCF06CA3D0F799623C23268
:10F256000F789623CA710F23232323C3240FE1E3D8
:10F26600D511BF0DCDCF06D1CA740FE3E5C5010692
:10F27600002A1F21E509C1E5CDD303E1221F216044
:10F2860069221D212B3600CDCF06C2630FD1732311
:10F296007223EBE1C9322C2121A303222921E1C9E2
:10F2A600E52AF120E357D5C5CD0509C1F1EBE3E524
:10F2B600EB3C577EFE2CCA850FCDD506292215219B
:10F2C600E122F1201E00D511E5F52A1D213E19EB9C
:10F2D6002A1F21EBCDCF06CADF0F7EB923C2C10F8D
:10F2E6007EB8235E235623C2AD0F3AF120B7C21073
:10F2F60004F1444DCAEF1596CA3D101E10C31B04F7
:10F30600110400F1CA2609712370234FCDE40323AB
:10F3160023220A2171233AF1201779010B00D20228
:10F3260010C10371237023F5E5CD9A17EBE1F13D8A
:10F33600C2FA0FF5424BEB19DAFC03CDED03221F9F
:10F34600212B3600CDCF06C2201003572A0A215E94
:10F35600EB2909EB2B2B73237223F1DA6110474F4C
:10F366007E2316E15E235623E3F5CDCF06D2DA0FD0
:10F37600E5CD9A17D119F13D444DC242102929C154
:10F3860009EB2A1521C92A1F21EB210000393AF27F
:10F3960020B7CA8110CDE812CDE8112A9F20EB2AAA
:10F3A60008217D934F7C9A41501E0021F22073065E
:10F3B60090C3C5163AF02047AFC38710CD1E11CDB6
:10F3C600101101F609C5D5CDD50628CDC20EE5EB3F
:10F3D6002B562B5EE1CDCF0CCDD50629CDD506B467
:10F3E600444DE3712370C35D11CD1E11D5CDA30D20
:10F3F600CDCF0CE35E2356237AB3CA13047E23666D
:10F406006FE52A2321E32223212A2721E52A252124
:10F41600E5212521D5CD0617E1CDCC0C2BCD5F08F6
:10F42600C20704E1222521E1222721E1222321E14D
:10F43600C9E52AA120237CB5E1C01E16C31B04CD55
:10F44600D506A73E80321021B647CDC70EC3CF0CD6
:10F45600CDCF0CCD5318CD6311CDE812014313C5A2
:10F466007E2323E5CDBE11E14E2346CD5711E56F30
:10F47600CDDB12D1C9CDBE11210421E5772323733B
:10F486002372E1C92B062250E50EFF237E0CB7CA74
:10F496007911BACA7911B8C26A11FE22CC5F08E3A3
:10F4A60023EB79CD57111104212AF6202229213E7A
:10F4B6000132F220CD0917CDCF0622F620E17EC01B
:10F4C6001E1EC31B0423CD6311CDE812CDFD161CF1
:10F4D6001DC80ACDE006FE0DCC110B03C3AF11B754
:10F4E6000EF1F52A9F20EB2A08212F4F06FF09234C
:10F4F600CDCF06DADC1122082123EBF1C9F11E1A61
:10F50600CA1B04BFF501C011C52AF4202208212117
:10F516000000E52A9F20E521F820EB2AF620EBCD16
:10F52600CF0601F911C24D122A1B21EB2A1D21EB30
:10F53600CDCF06CA20127E2323B7CD5012C30A129E
:10F54600C1EB2A1F21EBCDCF06CA7612CDFD167B65
:10F55600E509B7F21F12220A21E14E060009092326
:10F56600EB2A0A21EBCDCF06CA2012013F12C5F6BF
:10F57600807E23235E235623F0B7C8444D2A0821F4
:10F58600CDCF066069D8E1E3CDCF06E3E56069D06B
:10F59600C1F1F1E5D5C5C9D1E17DB4C82B462B4EE5
:10F5A600E52B2B6E26000950592B444D2A0821CDF8
:10F5B600D603E171237069602BC3EB11C5E52A29D7
:10F5C60021E3CD550DE3CDD00C7EE52A2921E58634
:10F5D6001E1CDA1B04CD5411D1CDEC12E3CDEB1277
:10F5E600E52A0621EBCDD212CDD21221EA0CE3E5B3
:10F5F600C38511E1E37E23234E23466F2C2DC80AD3
:10F60600120313C3DC12CDD00C2A2921EBCD06132D
:10F61600EBC0D550591B4E2A0821CDCF06C2041384
:10F626004709220821E1C92AF6202B462B4E2B2B0F
:10F63600CDCF06C022F620C9019610C5CDE512AF82
:10F646005732F2207EB7C9019610C5CD1B13CA26C4
:10F656000923235E23561AC93E01CD5411CD301419
:10F666002A062173C1C38511CDE013AFE34FE57EB2
:10F67600B8DA551378110E00C5CDBE11C1E1E523E8
:10F686002346236668060009444DCD57116FCDDB2E
:10F6960012D1CDEC12C38511CDE013D1D51A90C38A
:10F6A6004B13EB7ECDE5130405CA2609C51EFFFEE6
:10F6B60029CA9A13CDD5062CCD2D14CDD50629F100
:10F6C600E3014D13C53DBE0600D04F7E91BB47D822
:10F6D60043C9CD1B13CACE145F23237E23666FE571
:10F6E600194672E3C57EFE24C2CF13CDF91B180D51
:10F6F600FE25C2D913CD691C1803CDB517C1E1701B
:10F70600C9EBCDD50629C1D1C543C9CD3014328444
:10F7160020CD8320C39610CD1A14C34B20CD1A14C6
:10F72600F51E002BCD5F08CA1014CDD5062CCD2DA5
:10F7360014C1CD8320ABA0CA1114C9CD2D143284B7
:10F7460020324C20CDD5062CC32D14CD5F08CDCC50
:10F756000CCD0B097AB7C226092BCD5F087BC9CD24
:10F7660011091AC39610CDCC0CCD1109D5CDD506ED
:10F776002CCD2D14D112C9212C19CDFD16C3681418
:10F78600CDFD1621C1D1CDD71678B7C83A2C21B7F1
:10F79600CAEF1690D282142F3CEBCDDF16EBCDEFDD
:10F7A60016C1D1FE19D0F5CD141767F1CD2D15B4BC
:10F7B600212921F2A814CD0D15D2EE142334CA1630
:10F7C600042E01CD4315C3EE14AF90477E9B5F23F5
:10F7D6007E9A57237E994FDC19156863AF4779B730
:10F7E600C2DB144A54656F78D608FEE0C2BC14AF7B
:10F7F600322C21C905297A1757798F4FF2D31478FD
:10F806005C45B7CAEE14212C218677D2CE14C8786F
:10F81600212C21B7FC001546237EE680A94FC3EFB5
:10F82600161CC014C00CC00E8034C0C316047E83E0
:10F836005F237E8A57237E894FC9212D217E2F770C
:10F84600AF6F90477D9B5F7D9A577D994FC90600A4
:10F85600D608DA3C15435A510E00C32F15C6096F58
:10F86600AF2DC8791F4F7A1F577B1F5F781F47C37D
:10F876003F150000008103AA561980F122768045C3
:10F88600AA3882CDAE16B7EA2609212C217E01358B
:10F896008011F30490F570D5C5CD6814C1D104CD9F
:10F8A6000416215115CD5F14215515CDF619018089
:10F8B60080110000CD6814F1CD291801318011188E
:10F8C6007221C1D1CDAE16C82E00CD6C1679323B51
:10F8D60021EB223C21010000505821B914E521C535
:10F8E60015E5E52129217E23B7CAF115E52E081F66
:10F8F6006779D2DF15E52A3C2119EBE13A3B2189EC
:10F906001F4F7A1F577B1F5F781F472D7CC2CE156E
:10F91600E1C9435A514FC9CDDF16012084110000B9
:10F92600CDEF16C1D1CDAE16CA0A042EFFCD6C1688
:10F9360034342B7E3257202B7E3253202B7E324F8F
:10F946002041EBAF4F575F325A20E5C57DCD4E20A3
:10F95600DE003FD23C16325A20F1F137D2C1E179AE
:10F966003C3D1FFAEF14177B175F7A175779174F2D
:10F97600297817473A5A2017325A2079B2B3C22942
:10F9860016E5212C2135E1C22916C3160478B7CA1B
:10F9960090167D212C21AE80471FA878F28F16C6BF
:10F9A6008077CAEF15CD1417772BC9CDAE162FE188
:10F9B600B7E1F2CE14C31604CDFA1678B7C8C6025C
:10F9C600DA160447CD6814212C2134C0C316043A34
:10F9D6002C21B7C83A2B21FE2F179FC03CC9CDAEAC
:10F9E600160688110000212C214F70060023368050
:10F9F60017C3B614CDAE16F0212B217EEE8077C943
:10FA0600EB2A2921E3E52A2B21E3E5EBC9CDFD16F7
:10FA1600EB2229216069222B21EBC92129215E23B2
:10FA260056234E234623C911292106041A77132388
:10FA360005C20B17C9212B217E07371F773F1F23CE
:10FA460023777907371F4F1FAEC978B7CAAE16217D
:10FA5600B716E5CDAE1679C8212B21AE79F8CD4380
:10FA6600171FA9C92378BEC02B79BEC02B7ABEC08A
:10FA76002B7B96C0E1E1C9474F575FB7C8E5CDFA82
:10FA860016CD1417AE67FC7A173E9890CD2D157CCF
:10FA960017DC00150600DC1915E1C91B7AA33CC06A
:10FAA6000BC9212C217EFE983A2921D07ECD5617EE
:10FAB60036987BF57917CDB614F1C921000078B1D7
:10FAC600C83E1029DADA0FEB29EBD2B01709DADAD9
:10FAD6000F3DC2A217C9FE2DF5CAC117FE2BCAC11A
:10FAE600172BCDCE1447575F2F4FCD5F08DA12186C
:10FAF600FE2ECAED17FE45C2F117CD5F08CD050EE5
:10FB0600CD5F08DA341814C2F117AF935F0C0CCA34
:10FB1600C917E57B90F40A18F20018F5CDF615F131
:10FB26003CC2F417D1F1CCD716EBC9C8F5CD971660
:10FB3600F13DC9D557788947C5E5D5CD9716F1D694
:10FB460030CD2918E1C1D1C3C917CDDF16CDC016F6
:10FB5600C1D1C368147B0707830786D6305FC3DF2E
:10FB660017E5219F03CDA511E1EBAF0698CDC5168C
:10FB760021A411E5212E21E5CDAE163620F261181D
:10FB8600362D233630CA1719E5FCD716AFF5CD1D2D
:10FB96001901439111F84FCD2917B7E28E18F1CD0F
:10FBA6000B18F5C37018CDF615F13CF5CD1D19CD22
:10FBB60056143CCD5617CDEF16010603F1813CFADB
:10FBC600AA18FE08D2AA183C473E023D3DE1F511AF
:10FBD600301905C2BB18362E2336302305362ECCF7
:10FBE6000417C5E5D5CDFA16E1062F047B965F23EB
:10FBF6007A9E5723799E4F2B2BD2CA18CD0D1523EB
:10FC0600CDEF16EBE17023C10DC2BB1805CAFB1878
:10FC16002B7EFE30CAEF18FE2EC40417F1CA1A193D
:10FC2600364523362BF20B19362D2F3C062F04D6DC
:10FC36000AD20D19C63A237023772371E1C90174DC
:10FC46009411F723CD2917B7E1E28518E9000000E2
:10FC560080A08601102700E803006400000A000067
:10FC660001000021D716E3E9CDDF16212C19CDECD2
:10FC760016C1D1CDAE1678CA9519F26019B7CA0A5F
:10FC860004B7CACF14D5C579F67FCDFA16F27D1919
:10FC9600D5C5CD8117C1D1F5CD2917E17C1FE1224C
:10FCA6002B21E1222921DC4219CCD716D5C5CD62FC
:10FCB60015C1D1CDA315CDDF16013881113BAACDD3
:10FCC600A3153A2C21FE88D28A16CD8117C680C686
:10FCD60002DA8A16F5215115CD5914CD9A15F1C1BE
:10FCE600D1F5CD6514CDD71621D519CD051A11003C
:10FCF60000C14AC3A31508402E9474704F2E776E28
:10FD060002887AE6A02A7C50AAAA7EFFFF7F7F009F
:10FD160000808100000081CDDF1611A115D5E5CD4B
:10FD2600FA16CDA315E1CDDF167E23CDEC1606F12E
:10FD3600C1D13DC8D5C5F5E5CDA315E1CDFD16E587
:10FD4600CD6814E1C30E1ACDAE16215E20FA871ACD
:10FD5600217F20CDEC16215E20C886E607060077B7
:10FD66002387874F09CDFD16CDA3153A5D203CE6C6
:10FD7600030600FE0188325D20218B1A87874F0912
:10FD8600CD5914CDFA167B59EE4F4F36802B463699
:10FD960080215C20347ED6ABC27E1A770C151CCD32
:10FDA600B914217F20C30617772B772B77C3621AE6
:10FDB60068B1466899E9926910D1756821E51ACD4E
:10FDC6005914CDDF1601498311DB0FCDEF16C1D1D2
:10FDD600CD0416CDDF16CD8117C1D1CD651421E92D
:10FDE6001ACD5F14CDAE1637F2D11ACD5614CDAE5C
:10FDF60016B7F5F4D71621E91ACD5914F1D4D7164A
:10FE060021ED1AC3F619DB0F49810000007F05BA00
:10FE1600D71E866426998758342387E05DA586DA3F
:10FE26000F4983CDDF16CDA11AC1E1CDDF16EBCD8B
:10FE3600EF16CD9B1AC30216CDAE16FC4219FCD79F
:10FE4600163A2C21FE81DA341B0100815159CD046A
:10FE560016215F14E5213E1BCDF61921E51AC909C5
:10FE66004AD73B78026E847BFEC12F7C74319A7D23
:10FE7600843D5A7DC87F917EE4BB4C7E6CAAAA7FE6
:10FE860000000081C9D7C93E0CC39C1CCD2D147B34
:10FE9600328720C9CDCC0CCD1109ED538B20ED5303
:10FEA6008D20C9CD1109D5E146237EC38710CDCC5F
:10FEB6000CCD1109D5CDD5062CCDCC0CCD1109E331
:10FEC600732372E1C9CDCF0CCD1109C5212E217A3C
:10FED600FE00280CCDDC1B78FE302802702371232F
:10FEE6007BCDDC1B7AFE00200578FE3028027023CD
:10FEF6007123AF772377C1212E21C3351147E60F32
:10FF0600FE0A3802C607C6304F780F0F0F0FE60FEE
:10FF1600FE0A3802C607C63047C9EB210000CD12DB
:10FF26001CDA321C1805CD121C381F29292929B5BF
:10FF36006F18F3131AFE20CA121CD630D8FE0A38E0
:10FF460005D607FE0AD8FE103FC9EB7A4BE5CD86EB
:10FF560010E1C91E26C31B04CDCF0CCD1109C52146
:10FF66002E2106110578FE012808CB13CB1230F49A
:10FF76001804CB13CB123E30CE0077230520F3AF07
:10FF8600772377C1212E21C33511EB210000CD86C1
:10FF96001CDA941CD63029B56FCD861C30F6EB7A68
:10FFA6004BE5CD8610E1C9131AFE20CA861CFE3029
:10FFB600D8FE323FC91E28C31B04C34C00C3080029
:10FFC600C300003E00329220C36700F5A0C1B83ED0
:10FFD60000C9CDE006C3070B0D0A4D455A5A313804
:10FFE6003052414D2025322E33664D487A0D0A0097
:09FFF600696E66006E616E000088
:020000040001F9
:10000000000E816F57C584F558C585F559C586F52D
:100010005AC587F587AF14D0010E816F84C501F5ED
:1000200085C502F586C503F587C504F5B1EC90F0EA
:1000300001C584F502C585F503C586F504C587F5B8
:10004000000E836F000E826FBCC571F5BDC572F5E1
:100050008151D8B40DD08151D8A404D0000E676F5F
:100060002B0E03D0000E676F2D0E666F66C581F5EF
:1000700084C501F585C502F586C503F587C504F578
:1000800023EC8EF001040210D8A42CD0050181517C
:10009000D8B409D081C500F67107D8A07207000E48
:1000A000836F010E826F000E8225016E060E832182
:1000B000026EF60E036EFF0E046E5FEC90F0FD0E06
:1000C0007127FF0E722355C512F556C513F5000EA4
:1000D000146E060E156E71C516F572C517F52BEC6C
:1000E0008FF0120084C501F585C502F586C503F5BC
:1000F00087C504F523EC8EF001500210D8A42CD053
:1001000005018151D8B409D081C500F67107D8A086
:100110007207000E836F010E826F000E8225016E42
:10012000060E8321026EFA0E036EFF0E046E5FEC64
:1001300090F0FD0E7127FF0E722355C512F556C5BE
:1001400013F5000E146E060E156E71C516F572C508
:1001500017F52BEC8FF01200000E0501886F000ED2
:10016000896F800E8A6F3F0E8B6F000E706F000ECE
:100170006F6F84C501F585C502F586C503F587C592
:1001800004F5000E056E000E066E000E076E000EE2
:10019000086EE6EC8EF0D8A00CD0BED073C588F502
:1001A00074C589F575C58AF576C58BF505016F4B64
:1001B000702B88C50FF589C510F58AC511F58BC55B
:1001C00012F5000E136E000E146E200E156E410E09
:1001D000166E00EC86F00FC573F510C574F511C5E9
:1001E00075F512C576F505017351845D016E745184
:1001F0008559026E75518659036E76518759046E82
:10020000A1EC8FF004BECAD704500310021004E121
:10021000020E015CD8A0C2D773C528F574C529F5B4
:1002200075C52AF576C52BF584C52CF585C52DF544
:1002300086C52EF587C52FF5BBEC8DF0D8A0AED7BF
:1002400005018851845D016E89518559026E8A517C
:100250008659036E8B518759046EA1EC8FF004BE52
:1002600008D004500310021043E1020E015CD8B024
:100270003FD088C584F589C585F58AC586F58BC5C7
:1002800087F54AD088C528F589C529F58AC52AF594
:100290008BC52BF5000E2C6E000E2D6E200E2E6ED3
:1002A000410E2F6E73EC8AF028C588F529C589F5B3
:1002B0002AC58AF52BC58BF505016F07D8A07007F5
:1002C0008851845D016E89518559026E8A51865923
:1002D000036E8B518759046EA1EC8FF004BEC9D711
:1002E00004500310021004E1020E015CD8A0C1D733
:1002F00084C528F585C529F586C52AF587C52BF55A
:1003000088C52CF589C52DF58AC52EF58BC52FF529
:10031000BBEC8DF0D8A0B6D75BC569F569C56AF5A9
:100320000501BFBF05D0BEC562F5BFC563F504D0EA
:10033000000E636F060E626F62C56DF563C56EF5E4
:100340006D4B6E2B660E6A19D8A416D070AF0CD008
:10035000000E886F000E896F800E8A6F3F0E8B6FC4
:10036000000E706F000E6F6F670E6919D8B404D05D
:100370006F516D2770516E23000E786F000E776FEE
:1003800084C579F585C57AF586C57BF587C57CF585
:1003900088C573F589C574F58AC575F58BC576F57D
:1003A0007BD079C528F57AC529F57BC52AF57CC5AA
:1003B0002BF588C52CF589C52DF58AC52EF58BC57D
:1003C0002FF573EC8AF028C541F529C542F52AC5F9
:1003D00043F52BC544F5B7EC8BF041C57DF542C51F
:1003E0007EF543C57FF544C580F57DC501F57EC525
:1003F00002F57FC503F580C504F589EC8EF001C5D3
:100400006BF502C56CF579C528F57AC529F57BC56C
:100410002AF57CC52BF57DC513F57EC514F57FC582
:1004200015F580C516F588C50FF589C510F58AC57F
:1004300011F58BC512F500EC86F00FC52CF510C533
:100440002DF511C52EF512C52FF51AEC90F028C523
:1004500079F529C57AF52AC57BF52BC57CF588C5C4
:1004600028F589C529F58AC52AF58BC52BF5000E17
:100470002C6E000E2D6E200E2E6E410E2F6E73EC24
:100480008AF028C588F529C589F52AC58AF52BC5BE
:100490008BF50501774B782B6D51775D7851800A8C
:1004A0005C6E6E51800A5C58D8A07BD788C50FF56A
:1004B00089C510F58AC511F58BC512F5000E136EAE
:1004C000000E146EA00E156E400E166E00EC86F037
:1004D0000FC57DF510C57EF511C57FF512C580F5F8
:1004E00079C528F57AC529F57BC52AF57CC52BF594
:1004F0007DC52CF57EC52DF57FC52EF580C52FF564
:10050000BBEC8DF0D8B003D0000E050118D079C532
:1005100001F57AC502F57BC503F57CC504F57DC5FB
:1005200005F57EC506F57FC507F580C508F5E6EC3F
:100530008EF0D8A00BD005016BB108D0000E7D6FF6
:10054000000E7E6F000E7F6F000E806F84C501F578
:1005500085C502F586C503F587C504F57DC505F596
:100560007EC506F57FC507F580C508F596EC87F0D2
:1005700001C579F502C57AF503C57BF504C57CF59F
:1005800079C528F57AC529F57BC52AF57CC52BF5F3
:10059000000E136E000E146E200E156E410E166EB8
:1005A00073C50FF574C510F575C511F576C512F54F
:1005B00000EC86F00FC52CF510C52DF511C52EF5F4
:1005C00012C52FF5BBEC8DF0D8A024D005016F4BE0
:1005D000702B73C50FF574C510F575C511F576C58B
:1005E00012F5000E136E000E146E200E156E410EE5
:1005F000166E00EC86F00FC573F510C574F511C5C5
:1006000075F512C576F5660E05016A19D8A402D0F3
:100610006D4B6E2B73C588F574C589F575C58AF564
:1006200076C58BF56FC560F570C561F5000E0501E7
:10063000686F000E656F000E646F000E786F000E1D
:10064000776FCDD079C528F57AC529F57BC52AF510
:100650007CC52BF588C52CF589C52DF58AC52EF5E9
:100660008BC52FF573EC8AF028C541F529C542F5F5
:100670002AC543F52BC544F5B7EC8BF041C57DF594
:1006800042C57EF543C57FF544C580F57DC501F5BE
:100690007EC502F57FC503F580C504F589EC8EF0B3
:1006A00002BE06D0025013E10A0E015CD8B00FD092
:1006B0007DC501F57EC502F57FC503F580C504F54E
:1006C00089EC8EF001C56BF502C56CF505D0000E06
:1006D00005016C6F090E6B6F05016851D8B461AFED
:1006E00020D0000E8225D96E060E8321DA6E2E0EE2
:1006F000DF6E824B832B7107D8A07207010E686FE3
:1007000010D0000E8225D96E060E8321DA6E300ECF
:10071000DF6E824B832B7107D8A072076407D8A0C5
:10072000650764516511D8A4ECD7000E8225D96EF7
:10073000060E8321DA6E6B51300FDF6E824B832BF6
:100740007107D8A0720779C528F57AC529F57BC548
:100750002AF57CC52BF57DC513F57EC514F57FC53F
:1007600015F580C516F588C50FF589C510F58AC53C
:1007700011F58BC512F500EC86F00FC52CF510C5F0
:100780002DF511C52EF512C52FF51AEC90F028C5E0
:1007900079F529C57AF52AC57BF52BC57CF588C581
:1007A00028F589C529F58AC52AF58BC52BF5000ED4
:1007B0002C6E000E2D6E200E2E6E410E2F6E73ECE1
:1007C0008AF028C588F529C589F52AC58AF52BC57B
:1007D0008BF505016007D8A06107774B782B6D5129
:1007E000775D7851800A5C6E6E51800A5C58D8B093
:1007F00008D083BF27D7835104E14B0E825DD8A078
:1008000021D7000E786F4F0E776F000E7725D96EC7
:10081000060E7821DA6E000EDF6E000E5C6E060E9C
:100820005D6E82515C5E83515D5A77515C24016E2E
:1008300078515D20026E000E036E060E046E82C5B6
:1008400005F583C506F53DEC90F08251775D826F2A
:1008500083517859836F8151D8B402D0010E01D0F1
:10086000000E776F786B8151D8B40BD08207D8A077
:100870008307000E8225D96E060E8321DA6E81C5AC
:10088000DFF47751715F7851725B55C512F556C52B
:1008900013F5000E8225146E060E8321156E71C5A8
:1008A00016F572C517F52BEC8FF012008EC5D9F432
:1008B0008FC5DAF4DEC4F6F4DDC4F7F4000EF86E8A
:1008C0000800F550250AD8A486D18EC5D9F48FC565
:1008D000DAF4DE2A000EDD22000EBD6F000EBC6FC2
:1008E000BCC5C2F5BE69BF698EC5D9F48FC5DAF43F
:1008F000DEC4F6F4DDC4F7F4000EF86E0800F5501F
:100900002A0AD8A423D08EC5D9F48FC5DAF4DE2AFA
:10091000000EDD2290C5D9F491C5DAF4DFC492F55A
:10092000020EDE26DFC493F5000EDD2292C5D9F457
:1009300093C5DAF4DEC4BCF5DDC4BDF5BDAF36D079
:10094000C281BC6DBD1FD8B0BD2B30D08EC5D9F4CF
:100950008FC5DAF4DEC407F5DDC408F52BEC8DF0A5
:1009600007C5BCF508C5BDF507D08EC5D9F48FC540
:10097000DAF4DE2A000EDD228EC5D9F48FC5DAF452
:10098000DEC4F6F4DDC4F7F4000EF86E0800F5C41A
:1009900092F5D00E05019225936F946BFF0E942370
:1009A000945104E10A0E935DD8A0DFD78EC5D9F427
:1009B0008FC5DAF4DEC4F6F4DDC4F7F4000EF86E89
:1009C0000800F5502E0AD8A466D0000EBF6F000EA6
:1009D000BE6F8EC5D9F48FC5DAF4DE2A000EDD2293
:1009E0008EC5D9F48FC5DAF4DEC4F6F4DDC4F7F4AD
:1009F000000EF86E0800F5502A0AD8A41CD08EC547
:100A0000D9F48FC5DAF4DE2A000EDD2290C5D9F4C0
:100A100091C5DAF4DFC492F5020EDE26DFC493F549
:100A2000000EDD2292C5D9F493C5DAF4DEC4BEF51A
:100A3000DDC4BFF530D08EC5D9F48FC5DAF4DEC47D
:100A400007F5DDC408F52BEC8DF007C5BEF508C52C
:100A5000BFF507D08EC5D9F48FC5DAF4DE2A000EB3
:100A6000DD228EC5D9F48FC5DAF4DEC4F6F4DDC418
:100A7000F7F4000EF86E0800F5C492F5D00E0501EB
:100A80009225936F946BFF0E9423945104E10A0E08
:100A9000935DD8A0DFD78EC5D9F48FC5DAF4DEC454
:100AA0009EF5DDC49FF59EC5F6F49FC5F7F4000ED4
:100AB000F86E0800F5C49DF508D09E4B9F2B17D00B
:100AC0006C0E01D0000E9D6F12D09D51926F936BF2
:100AD0009351000AD8A4F6D792514C0AD8B4EDD756
:100AE0002A0AD8B4EDD70A0AD8B4E7D7EBD79EC5FF
:100AF000F6F49FC5F7F4000EF86E0800F550660A8C
:100B0000D8B41AD060D090C5D9F491C5DAF4DFC456
:100B100092F5040EDE26DFC493F5000EDD2292C5A9
:100B2000D9F493C5DAF4DEC495F5DEC496F5DEC4D7
:100B300097F5DEC498F50ED09D51926F936B93514B
:100B4000000AD8A407D092514C0AD8B4DCD7200AA6
:100B5000D8B4D9D7010E9E25926F000E9F21936FB6
:100B60008EC5D9F48FC5DAF492C5DEF493C5DDF4F1
:100B700018D08CC555F58DC556F595C557F596C554
:100B800058F597C559F598C55AF59EC5F6F49FC511
:100B9000F7F4000EF86E0800F5C45BF500EC80F089
:100BA00012009EC5F6F49FC5F7F4000EF86E08001B
:100BB000F550926F936B9351000AD8A404D09251D0
:100BC000660AD8B4D6D78EC5D9F48FC5DAF4DE2A32
:100BD000000EDD2212008EC5D9F48FC5DAF4DEC412
:100BE000F6F4DDC4F7F4000EF86E0800F550026E5E
:100BF000036A8CC504F58DC505F56BEC8FF0E3D762
:100C00001250800B1B6E12501224216E11BE2180D7
:100C10002150D8B40DD02128D8A408D0000E0F6ED2
:100C2000000E106E000E116E000E126E118E08D0A6
:100C3000000E0F6E000E106E000E116E000E126E82
:100C40001650800B1B1A165016241C6E15BE1C80E5
:100C50001C50D8B40DD01C28D8A408D0000E136E98
:100C6000000E146E000E156E000E166E158E08D056
:100C7000000E136E000E146E000E156E000E166E32
:100C80001C50D8B403D02150D8A409D0000E0F6E48
:100C9000000E106E000E116E000E126E1200155036
:100CA0000F02F3C426F5F4C427F526501D6E1E6A04
:100CB0001F6A206A2750226E236A246A256A14500C
:100CC0001002F3C426F5F4C427F526501D26000EA5
:100CD0001E221F22202227502226000E23222422F9
:100CE000252213501102F3C426F5F4C427F526502B
:100CF0001D26000E1E221F22202227502226000E13
:100D00002322242225221FC520F51EC51FF51DC53F
:100D10001EF51D6A13501002F3C426F5F4C427F51E
:100D200026501D2627501E22000E1F22000E2022B4
:100D300014500F02F3C426F5F4C427F526501D26DF
:100D400027501E22000E1F22000E20221FC520F554
:100D50001EC51FF51DC51EF51D6A13500F02F3C4F5
:100D600026F5F4C427F526501D2627501E22000E16
:100D70001F22000E202215501002F3C426F5F4C4E1
:100D800027F52650222627502322000E2422000E6B
:100D9000252214501102F3C426F5F4C427F5265079
:100DA000222627502322000E2422000E2522155031
:100DB0001102F3C426F5F4C427F52650176E275008
:100DC000186E196A1A6A19C51AF518C519F517C5E2
:100DD00018F5176A1750222618502322195024227A
:100DE0001A50252220502226000E232224222522BA
:100DF0001FC520F51EC51FF51DC51EF51D6A1C501B
:100E000021C517F5186A1726000E1822820E17241E
:100E1000266EFF0E1820276E0FD0D890223623366C
:100E20002436253620BE2280D8901D361E361F3629
:100E300020362606D8A0270624AEEFD7000E1C6E5B
:100E400020AE17D0FF0E1D14176EFF0E1E14186E65
:100E5000FF0E1F14196E7F0E20141A6E17501810F3
:100E600019101A10D8B403D0010E1C6E02D022B093
:100E7000FBD71C50D8B41FD0010E2226000E23220F
:100E80002422252225A017D022C517F523C518F541
:100E900024C519F525C51AF51A341A321932183233
:100EA000173217C522F518C523F519C524F51AC53B
:100EB00025F5264A272A27BE0DD0275003E12628EC
:100EC000D8A008D0000E226E000E236E800E246E75
:100ED0007F0E20D027BE05D027500EE12604D8B0C3
:100EE0000BD0000E226E000E236E000E246E000E3C
:100EF000256E000E1B6E0FD026C521F5FF0E2216A3
:100F0000FF0E23167F0E2416000E251621B0248E08
:100F1000D8902130256E1B50251222C50FF523C510
:100F200010F524C511F525C512F512000450800BEB
:100F30000D6E045004240F6E03BE0F800F50D8B402
:100F40000DD00F28D8A408D0000E016E000E026E3E
:100F5000000E036E000E046E038E06D0000E016EAE
:100F6000000E026E000E036E000E046E0850800B21
:100F70000E6E0D500E18D8A40D8C085008240E6E5D
:100F800007BE0E800E50D8B40DD00E28D8A408D0BD
:100F9000000E056E000E066E000E076E000E086E47
:100FA000078E06D0000E056E000E066E000E076E50
:100FB000000E086E0F500E5CD8B022D00DAC02D0DF
:100FC000800E0D1A0FC510F50EC50FF510C50EF5E4
:100FD00001C510F505C501F510C505F502C510F5EB
:100FE00006C502F510C506F503C510F507C503F5DE
:100FF00010C507F504C510F508C504F510C508F5BA
:10100000000E106E0F500EC509F50A6A095E000E3B
:101010000A5A0ABE2CD00A5004E11A0E095CD8A064
:1010200026D00150021003100410D8B402D0010ED3
:1010300001D0000E106E000E016E000E026E000E4A
:10104000036E000E046E0EC50FF515D010A005D06E
:10105000D89010300109106E02D0D890103201B033
:10106000108E043404320332023201320F2A0E5041
:101070000F5CD8A0EBD70DBC28D00F50D8A409D056
:10108000000E016E000E026E000E036E000E046E66
:101090001200055001260650022207500322085074
:1010A000042204A071D010A005D0D89010300109FE
:1010B000106E02D0D890103201B0108E0434043279
:1010C0000332023201320F2A5FD00550015C065014
:1010D0000258075003580450800A096E0850800ACD
:1010E0000958D8B025D00150055C096E0250065849
:1010F0000A6E035007580B6E045008580C6EFF0E12
:101100000924016EFF0E0A20026EFF0E0B20036EF3
:10111000FF0E0C20046E800E0D1A106C1050D8A417
:101120000FD0010E0126000E02220322042208D055
:101130000550015E0650025A0750035A0850045ADF
:101140000150021003100410D8A41CD01050D8A4D1
:1011500019D0000E016E000E026E000E036E000E1E
:10116000046E1200D890013602360336043610BEE3
:10117000018010A002D0D88001D0D89010360F5036
:10118000D8A40F0603AEEED7000E0E6E10AE0BD035
:1011900010C509F57F0E0916D8B403D0010E0E6EE6
:1011A00002D001B0FBD70E50D8B420D0010E0126DA
:1011B000000E02220322042204A018D001C509F562
:1011C00002C50AF503C50BF504C50CF50C340C3249
:1011D0000B320A32093209C501F50AC502F50BC501
:1011E00003F50CC504F50F28D8A40F2A0F28D8B48E
:1011F00003D00F50D8A40DD0000E016E000E026E69
:10120000000E036E000E046E0F50D8A402D0000E24
:101210000D6E0FA002D0038E01D0039ED8900F3028
:10122000046E0DBE048E01C501F502C502F503C5AD
:1012300003F504C504F51200080E0001B16F0401A6
:101240002093C292CA922091C290CA90000E186F49
:10125000000EC16E400EC96E2095C294CA94000E55
:10126000086F000EBF6E000EC76E000E106F000EEE
:10127000C06E000EC86E3F0E0201036F04010095A0
:10128000C694000E436F000E446F080E456F000EAB
:10129000476F4691468B468F0097BE86C69600994B
:1012A000BE88C698010E0201D56FA00ED46FD189F9
:1012B000D18B0401009FC68E070E0201766F0401D8
:1012C000009DBE8CC69C260E0201076FD28F000EB9
:1012D000046F000E0501B36F000EB26FB2C5C0F50A
:1012E000B3C5C1F5C1C5C1F4C0C5BFF4BE96270ED4
:1012F000B225F66EE30EB321F76EF86A000EF822FF
:101300000800F5C4C0F4BE86B24BB32B200EB35D0B
:10131000D8A0E4D7000E0401186F1969C968209598
:101320002185CA84000E086F0969C768000E106F16
:101330001169C86800910181C68000930183C6824B
:10134000009B018BC68A189D198DC98C189FC18E70
:10135000C99E000E136E240E146EF40E156E410E0F
:10136000166E4351016E4451026E4551036E046A7C
:10137000000E8BEC8CF001C50FF502C510F503C50E
:1013800011F504C512F500EC86F00FC528F510C55F
:1013900029F511C52AF512C52BF5000E2C6E240E69
:1013A0002D6E740E2E6E490E2F6E73EC8AF028C5CA
:1013B000AEF529C5AFF52AC5B0F52BC5B1F5DE0EE2
:1013C0000501A66FFF0EA76FAEC5A8F5AFC5A9F5BD
:1013D000B0C5AAF5B1C5ABF5DEEC90F0010E020187
:1013E000616F000E626F1E0E636F050E656F0E0E4D
:1013F000676F0F0E686F010E056F020E046F040E0B
:10140000206F000E0001D56F000ED86F020ED96F4D
:10141000040EDA6F7F0EDB6F010EDC6F080EDD6FDE
:10142000100EDE6F400EDF6F800ED76F820ED66F0C
:10143000010ED56F000ED86F020ED96F040EDA6F51
:101440007F0EDB6F010EDC6F080EDD6F200EDE6F8E
:10145000400EDF6F800ED76F820ED66F020ED56FF3
:10146000010ED86F060ED96F070EDA6F7F0EDB6F95
:10147000010EDC6F080EDD6F100EDE6F400EDF6FA9
:10148000800ED76F820ED66F030ED56F350ED86FD4
:101490007F0ED96F7F0EDA6F7F0EDB6F010EDC6F70
:1014A000000EDD6F000EDE6F000EDF6F820ED76F55
:1014B0008C0ED66F000ED46F550E0401596FAA0E14
:1014C000596F5991080E5D6F000E5E6F000E5F6FD1
:1014D000550E596FAA0E596F5981B79AA78AD68EA1
:1014E000C280C282FFD72B50800B386E2B502B242A
:1014F0003F6E2ABE3F803F50D8B40DD03F28D8A4BD
:1015000008D0000E286E000E296E000E2A6E000E06
:101510002B6E2A8E06D0000E286E000E296E000E4D
:101520002A6E000E2B6E2F50800B381A2F502F244E
:10153000406E2EBE40804050D8B40DD04028D8A474
:1015400008D0000E2C6E000E2D6E000E2E6E000EBA
:101550002F6E2E8E06D0000E2C6E000E2D6E000EFD
:101560002E6E000E2F6E2C502D102E102F10D8A482
:1015700017D0000E286E000E296E000E2A6E000E87
:101580002B6E800E2A127F0E2B1238502B1228C57C
:1015900028F529C529F52AC52AF52BC52BF51200F2
:1015A0003F50D8A409D0000E286E000E296E000E00
:1015B0002A6E000E2B6E120040503FC530F5316A86
:1015C000305E000E315A7F0E3024396E000E31200D
:1015D0003A6E28C534F529C535F52AC536F52BC52B
:1015E00037F5000E286E000E296E000E2A6E000ED2
:1015F0002B6E000E3B6E000E3C6E000E3D6E000E1C
:101600003E6E000E406E28D04050D8B411D0D89015
:101610003436353636363736D890283629362A3697
:101620002B363EBE2880D8903B363C363D363E3683
:101630002C50345C2D5035582E5036582F5037587A
:10164000D8A009D03E8C2C50345E2D50355A2E50E7
:10165000365A2F50375A402A190E4064D5D7345085
:10166000351036103710D8B411D03B800FD0D89039
:10167000283629362A362B363EBE2880D8903B366F
:101680003C363D363E363906D8A03A062AAEEFD76C
:10169000000E406E3EAE17D0FF0E3B14306EFF0EB4
:1016A0003C14316EFF0E3D14326E7F0E3E14336ECD
:1016B0003050311032103310D8B403D0010E406EC8
:1016C00002D028B0FBD74050D8B41FD0010E282636
:1016D000000E29222A222B222BA017D028C530F554
:1016E00029C531F52AC532F52BC533F533343332EC
:1016F00032323132303230C528F531C529F532C5A4
:101700002AF533C52BF5394A3A2A3ABE10D03A5059
:1017100003E13928D8A00BD0000E3A6E3968000ECC
:10172000286E000E296E000E2A6E000E2B6E3ABE39
:1017300005D03A5011E13904D8B00ED0000E3A6EFF
:10174000000E396E000E286E000E296E000E2A6EF5
:10175000000E2B6E000E386E39C53FF53FA002D04B
:101760002A8E01D02A9ED8903F302B6E0ED7B4C55A
:1017700051F5B5C552F5B6C553F5B7C554F541C5D4
:1017800051F542C552F543C553F544C554F5810E94
:10179000456EFF0E466E51C547F552C548F553C517
:1017A00049F554C54AF5180E05D0D8904A32493249
:1017B00048324732E82EF9D7475045244F6E000E85
:1017C0004620506E50BE0FD0505004E1170E4F5CB3
:1017D000D8A009D041C541F542C542F543C543F5FE
:1017E00044C544F5120050BE5BD04FC545F5FF0E11
:1017F000466EFF0E476E7F0E486E000E496E4566C0
:1018000001D007D049344932483247324632452E5A
:10181000F6D746C54BF547C54CF548C54DF549C506
:101820004EF54B505114456E4C505214466E4D506F
:101830005314476E4E505414486E4550461047108E
:101840004810D8B4C7D751C545F552C546F553C55C
:1018500047F554C548F5200E05D0D8904832473298
:1018600046324532E82EF9D74550D8B408D04B500F
:1018700051264C5052224D5053224E5054224B1C54
:10188000456E4C1C466E4D1C476E4E1C486E4550B6
:10189000511646505216475053164850541632D0DF
:1018A00051C545F552C546F553C547F554C548F5EC
:1018B000200E05D0D8904832473246324532E82EC5
:1018C000F9D7456608D0000E516E000E526E000E1C
:1018D000536E000E16D0D8905134456E5234466E79
:1018E0005334476E5434486E4550461047104810E4
:1018F000D8B408D0000E516E000E526E800E536E9A
:10190000BF0E546E51C541F552C542F553C543F55E
:1019100054C544F51200096E0950D8A404AE1AD07B
:1019200001C505F502C506F503C507F504C508F5AB
:10193000051E061E071E081E052A000E0622072287
:10194000082205C50BF506C50CF507C50DF508C53C
:101950000EF508D001C50BF502C50CF503C50DF554
:1019600004C50EF50150021003100410D8A409D0CC
:10197000000E016E000E026E000E036E000E046E6D
:101980001200960E0A6E06D00A2AD8900E320D3238
:101990000C320B32000E0B14056E000E0C14066E8A
:1019A000000E0D14076EFE0E0E14086E0550061084
:1019B00007100810D8B40DD0E7D70A2A010E0B265D
:1019C000000E0C220D220E22D8900E320D320C3257
:1019D0000B32000E0B14056E000E0C14066E000E7A
:1019E0000D14076EFF0E0E14086E0550061007103A
:1019F0000810D8B407D0E1D70A06D8900B360C36B9
:101A00000D360E360DBE03D0020E0A60F5D70AA0C1
:101A10000D9ED8900A320AC505F5066A076A086A5B
:101A200005C508F5076A066A056A05500B120650D7
:101A30000C1207500D1208500E120950D8A404AE13
:101A400001D00E8E0BC501F50CC502F50DC503F5D1
:101A50000EC504F51200000E0F6E000E0E6E000E85
:101A60000D6E000E0C6E02D0074A082A07C5F6F468
:101A700008C5F7F4000EF86E0800F550200AD8B437
:101A8000F3D707C5F6F408C5F7F4000EF86E0800A2
:101A9000F5C409F5F70E09240A6E0B6AFF0E0B2236
:101AA0000B500CE1050E0A5CD8B008D0DDD7000E53
:101AB0000D6E010E0C6E074A082A32D007C5F6F4E7
:101AC00008C5F7F4000EF86E0800F550096E0A6AB2
:101AD0000A50000AD8A424D009502B0AD8B4EBD756
:101AE000060AD8B4E4D71CD00EC501F50FC502F51F
:101AF000000E046E0A0E036EF1EC90F007C5F6F4CA
:101B000008C5F7F4000EF86E0800F550015E000EEF
:101B1000025A300E01240E6E000E02200F6ECBD73B
:101B200007C5F6F408C5F7F4000EF86E0800F5C412
:101B300009F5D00E09240A6E0B6AFF0E0B220B501A
:101B400004E10A0E0A5CD8A0CFD70C500D10D8A41F
:101B50000DD00EC509F50FC50AF5091E0A1E094A62
:101B60000A2A09C507F50AC508F512000EC507F5CA
:101B70000FC508F51200000E2814306E000E29144F
:101B8000316E800E2A14326E7F0E2B14336E30505D
:101B9000311032103310D8A408D0000E286E000E79
:101BA000296E000E2A6E000E2B6E000E2C14306E65
:101BB000000E2D14316E800E2E14326E7F0E2F14F7
:101BC000336E3050311032103310D8A408D0000ECC
:101BD0002C6E000E2D6E000E2E6E000E2F6E2BAE94
:101BE00009D0286C291ED8B0292A2A1ED8B02A2A42
:101BF000800E2B562FAE09D02C6C2D1ED8B02D2A5E
:101C00002E1ED8B02E2A800E2F56000E281A000E37
:101C1000291A000E2A1A800E2B1A000E2C1A000EFA
:101C20002D1A000E2E1A800E2F1A2C50285C2D50C3
:101C300029582E502A582F502B58D8B002D0D8905F
:101C40001200D8801200B8C50BF5B9C50CF5BAC59D
:101C50000DF5BBC50EF501C50BF502C50CF503C5A9
:101C60000DF504C50EF50BC505F50CC506F50DC53E
:101C700007F50EC508F5180E05D0D89008320732C2
:101C800006320532E82EF9D70550096E0A6A095066
:101C90000A10D8A419D0D8900B34056E0C34066EF7
:101CA0000D34076E0E34086E05500610071008102C
:101CB000D8A405D0000E026E020E016E1200000EB6
:101CC000026E030E016E120009280A10D8A41CD05F
:101CD0000BC505F50CC506F50DC507F50EC508F5D0
:101CE000090ED8900536063607360836E82EF9D79D
:101CF0000550061007100810D8A402D0010E01D01C
:101D0000000E016E026A1200000E026E040E016ED9
:101D10001200033404340A6E0A50D8A409D0000E0D
:101D2000016E000E026E000E036E000E046E1200B5
:101D300001C505F502C506F503C507F504C508F597
:101D4000200E05D0D8900832073206320532E82E30
:101D5000F9D70550096E038EFF0E0116FF0E02160D
:101D6000FF0E0316000E0416960E0A5E0AAE0DD084
:101D70000A50800A970FD8A0D2D7D89004320332E5
:101D8000023201320A3EF9D70DD01F0E0A6407D085
:101D9000C6D7D89001360236033604360A060A50F2
:101DA000D8A4F7D70950D8B408D0041E031E021EC9
:101DB000016C000E02220322042201C501F502C5B6
:101DC00002F503C503F504C504F51200000E011465
:101DD000096E000E02140A6E800E03140B6E7F0E45
:101DE00004140C6E09500A100B100C10D8A408D063
:101DF000000E016E000E026E000E036E000E046EE9
:101E0000000E0514096E000E06140A6E800E0714EB
:101E10000B6E7F0E08140C6E09500A100B100C107C
:101E2000D8A408D0000E056E000E066E000E076ED8
:101E3000000E086E055001180AE10650021807E16D
:101E40000750031804E108500418D8B402D0D89001
:101E50001200D8801200C2A10AD014C50BF515C516
:101E60000CF512C50DF513C50EF57CEC90F017BE00
:101E700005D016C51BF517C51CF504D0000E1C6E49
:101E8000000E1B6E000E1A6E000E196E0CD0000EA6
:101E9000036E200E026E12C504F513C505F56BEC3A
:101EA0008FF0194A1A2A1B50195C1A50800A186EB2
:101EB0001C50800A1858D8A0EAD70501C2B11200F8
:101EC00014C50BF515C50CF512C50DF513C50EF5AA
:101ED0007CEC90F0120004500510D8B404D00450EB
:101EE0000510D8A404D0025016EC91F0120020EE98
:101EF00009F00450D9260550DA22DE50DE10D8B49D
:101F000016D020EE09F00450D9260550DA2210EE42
:101F100003F00450E1260550E222DE50E65CE65074
:101F2000800A0A6EDE50800A0A58D8B0120020EEED
:101F300003F00450D9260550DA22DE2A000EDD22F5
:101F4000120004BE07D00450031002101DE101046A
:101F5000D8B01AD001C505F502C506F503C507F5C9
:101F600004C508F5051E061E071E081E052A000EDC
:101F700006220722082205C501F506C502F507C598
:101F800003F508C504F5120001C501F502C502F507
:0A1F900003C503F504C504F51200B3
:101F9C00CFC4C0F5CEAA0BD0400E0501C019D8B4E1
:101FAC00D0C4C9F20001D785D795B79A1100000E9D
:101FBC00C86E410E0501C019D8A403D0B7C4C0F433
:101FCC0008D0400EC019D8A403D0C7C2C0F401D0A9
:101FDC00C0680001D785C868D795B79A1100A2C50B
:101FEC005EF5A3C55FF50FD0A0C58CF5A1C58DF529
:101FFC005E0E05018E6F050E8F6FA4C590F5A5C5FD
:10200C0091F556EC84F05EC5F6F45FC5F7F4000E5E
:10201C00F86E0800F5500009D8A4E6D7000E0501AB
:10202C00A16F000EA06F1200000E2C1A000E2D1ABC
:10203C00000E2E1A800E2F1A28C501F529C502F59F
:10204C002AC503F52BC504F52CC505F52DC506F5DC
:10205C002EC507F52FC508F596EC87F001C528F5B8
:10206C0002C529F503C52AF504C52BF5120003C5D5
:10207C0009F504C50AF501C507F502C508F510D028
:10208C0009C5D9F40AC5DAF4DF500B6E094A0A2ADD
:10209C0007C5D9F408C5DAF40BC5DFF4074A082ADA
:1020AC000506D8A006060528EBE10628D8B41200D0
:1020BC00E7D703C505F504C506F501C507F502C547
:1020CC0008F505C5F6F406C5F7F4054A062A000E10
:1020DC00F86E07C5D9F408C5DAF4074A082A0800CF
:1020EC00F5C4DFF4DF50D8B41200EBD7000E116E3C
:1020FC00000E106E0BD00FC502F5036A0DC504F56A
:10210C000EC505F56BEC8FF0104A112A10500B24FC
:10211C00D96E11500C20DA6EDF500F6E0F50D8B400
:10212C001200E9D7010E056E200E01180210D8B46A
:10213C000ED0F70E0124036EFF0E0220046E045025
:10214C0004E1050E035CD8A002D0000E056E05C597
:10215C0001F5026A12000150021003100410D8B4E9
:10216C0008D0000E011A000E021A000E031A800E7F
:10217C00041A01C501F502C502F503C503F504C532
:10218C0004F5120001EE00F2500EEE6AE806FDE1D5
:10219C0001EEB4F10F0EEE6AE806FDE10401080E43
:1021AC005D6F000E5E6F000E5F6F00011CEF89F01B
:1021BC00A80EAC6F050EAD6F000EA06F000EA16FD8
:1021CC00A6C5A2F5A7C5A3F5AC0EA46F050EA56F09
:1021DC00F5EC8FF0120001500302F3C405F5F4C4C2
:1021EC0006F501500402F350062602500302F35088
:1021FC00062605C501F506C502F51200D00E012410
:10220C00036EFF0E0220046E045006E10A0E035CFE
:10221C00D8B002D0010E01D0000E016E026A12007D
:0E222C00016EB7A2FED701C5C9F21200110063
:020000040020DA
:10000000FF0FFF0FFF0FFF0FFF0FFF0FFF0FFF0F80
:10001000FF0FFF0FFF0FFF0FFF0FFF0FFF0FFF0F70
:10002000FF0FFF0FFF0FFF0FFF0FFF0FFF0FFF0F60
:10003000FF0FFF0FFF0FFF0FFF0FFF0FFF0FFF0F50
:020000040030CA
:080000008CFFFFF79FFFFFFFDB
:01000900FFF7
:00000001FF
